:020000040800F2
:10000000C04000200D010008EB1C0008FB1900088F
:10001000E91C000861080008DD200008000000005D
:10002000000000000000000000000000CD1E0008DD
:100030006308000800000000ED1C0008CF1E000847
:1000400027010008270100082701000827010008F0
:1000500027010008270100082701000827010008E0
:10006000270100086508000827010008270100088B
:1000700027010008270100082701000827010008C0
:1000800027010008270100082701000827010008B0
:100090002701000827010008270100086B08000855
:1000A00000000000270100082701000827010008C0
:1000B0002701000827010008270100082701000880
:1000C0002701000827010008270100082701000870
:1000D0002701000827010008270100082701000860
:1000E0002701000827010008270100082701000850
:1000F00027010008DFF810D000F00EFB0048004791
:10010000E5290008AFF30080C04000200648804782
:1001100006480047FEE7FEE7FEE7FEE7FEE7FEE7EC
:10012000FEE7FEE7FEE7FEE7451F0008F5000008D2
:100130002DE9F05F0546002092469B46884606461C
:10014000814640241BE0284641464746224600F0AF
:10015000E3F853465A46C01A914110D31146184647
:10016000224600F0CAF82D1A67EB01084F462246D6
:100170000120002100F0C1F817EB00094E41201EBC
:10018000A4F10104DFDC484631462A464346BDE877
:10019000F09FD2B201E000F8012B491EFBD270475C
:1001A0000022F6E710B513460A4604461946FFF743
:1001B000F0FF204610BD80EA010210B502F00043B6
:1001C000400022D04A001FD0010E01EB1261C0F3A3
:1001D0005600C2F3560240F4000042F40002A0FBB5
:1001E000022000047F39140400D0401C50EA124061
:1001F00001D44000491EC2B20C0604EBD010401CD2
:100200004008802A02D003E0002010BD20F0010049
:10021000002900DA0020184310BD30B480EA010242
:1002200002F0004530F0004221F0004013D090B1C0
:10023000C30DD40DC2F31601C0F31600E41A41F445
:10024000000140F400027D34914201D3641C00E0BF
:100250004900002C02DA30BC002070474FF4000047
:100260000023914201D3891A034340084FEA410118
:10027000F7D151B1914202D14FF0004105E002D2D5
:100280004FF0010101E06FF0010103EBC45028447D
:1002900030BC00F051B8C10F80EAE0700844CA07D2
:1002A0009623002100F051B800F0004230F00040E9
:1002B0000AD0C10D01F56071C0F3160042EA015188
:1002C000C20840071143704700200146704730B50F
:1002D0000B46014600202022012409E021FA02F504
:1002E0009D4205D303FA02F5491B04FA02F528449E
:1002F000151EA2F10102F1DC30BD202A04DB203AF8
:1003000000FA02F1002070479140C2F1200320FA68
:1003100003F3194390407047202A04DB203A21FA66
:1003200002F00021704721FA02F3D040C2F120020E
:1003300091400843194670470029A8BF7047401CE8
:10034000490008BF20F00100704710B4B0FA80FCEB
:1003500000FA0CF050EA010404BF10BC704749B128
:10036000CCF1200421FA04F411FA0CF118BF012198
:1003700021430843A3EB0C01CB1D4FEA00614FEA78
:10038000102042BF002010BC704700EBC350104447
:100390000029A4BF10BC7047401C490008BF20F0D2
:1003A000010010BC70472DE9FE4F804681EA030032
:1003B000C00F0C46009021F0004123F00045B8EB3F
:1003C0000200A94105D24046214690461C460B46F4
:1003D000024623F00040104347D0270DC7F30A0020
:1003E000C3F30A510290401A019040286BDAC3F31C
:1003F000130040F4801B0098924620B10023D2EBFA
:10040000030A63EB0B0B01985946C0F140025046BA
:10041000FFF773FF06460D4650465946019A00F015
:100420008DF910EB08006141002487EA115284EA3B
:10043000E7731A4340D0009A62B3019A012A4FEA47
:10044000075215DC001B61EB02014FF0004202EA8B
:100450000752CDE90042001C41F5801132462B467F
:1004600000F08DF903B0BDE8F08F40462146F9E772
:10047000001B61EB0201001C41F5801300185B4179
:100480002018A2F5001747EB030140EAD570B61912
:100490006D4111E06D084FEA360645EAC0754FEA36
:1004A0000752001B61EB0201001C41F58011490855
:1004B0004FEA30000019514132462B4603B0BDE8E7
:1004C000F04F00F04DB90098012240000023D0EB1E
:1004D000020263EBE073009821464FEAE074B8EB48
:1004E000000061EB0401E9E783F000435BE781F082
:1004F000004158E72DE9FE4F81EA030404F000446F
:1005000021F0004100944FF0000B23F0004350EA2B
:1005100001045ED052EA03045BD0C3F30A54C1F372
:100520000A552C44A4F2F3340194A0FB0254C1F305
:10053000130141F48011C3F3130343F4801301FB4F
:10054000024400FB034E840A970A44EA815447EAB6
:100550008357A4FB076802958D0A05FB07854FEAC0
:10056000932C04FB0C542705029D4FEA065847EADA
:100570001637B5EB08056EEB070C870E920E47EAAF
:10058000811742EA8312A7FB0201B6EB0B0164EB71
:1005900000042B0D43EA0C335E1844EB1C50DA4682
:1005A0005146E7FB0201C5F313044FEA0B3343EA5C
:1005B00014534FEA0432019C43EA0603A4F10C04ED
:1005C0000294009CCDE900B400F0D9F803B0BDE876
:1005D000F08F00200146F9E72DE9F04D81EA030490
:1005E00004F0004B21F0004514464FF0000A23F0C0
:1005F000004150EA050220D054EA01021DD0C5F3A3
:100600000A570246C5F31303C1F31300C1F30A5698
:1006100040F4801543F48013A7EB0608101BD64660
:1006200008F2FD3873EB050002D308F1010801E080
:1006300092185B41B8F1000F03DA00200146BDE8D3
:10064000F08D00204FF48011064684460EE0171B03
:1006500073EB050705D3121B63EB050306434CEA56
:10066000010C49084FEA300092185B4150EA01073B
:10067000EDD152EA030012D082EA040083EA0501B8
:10068000084305D0101BAB4106D20122002306E02F
:1006900000224FF0004302E06FF0010253101AEB0A
:1006A00006004CEB085110EB0A0041EB0B01BDE8D2
:1006B000F04D00F055B8C1F30A52C1F3130140F2F6
:1006C000FF3341F480119A4202DA0020014670475C
:1006D00040F233439A42A2F2334202DC5242FFF725
:1006E0001BBEFFF70ABE000030B5041E71F1000406
:1006F00004DB4FF00044404264EB0101141E73F12F
:10070000000405DB1C464FF00043524263EB040338
:10071000994208BF904230BD064C074D06E0E068A4
:1007200040F0010394E8070098471034AC42F6D338
:10073000FFF7E4FC9C2A0008BC2A0008202A06DBFC
:10074000CB17203A41FA02F043EAE07306E041FA9F
:1007500002F3D040C2F1200291400843194670478D
:1007600010B5141E73F1000408DA401C41F10001B9
:1007700092185B411A4301D120F0010010BD2DE910
:10078000F04D92469B4611B1B1FA81F202E0B0FA07
:1007900080F220329046FFF7B0FD04460F4640EA53
:1007A0000A0041EA0B0153465A46084313D011464A
:1007B00053EA010019D0C8F140025046FFF7ACFDE2
:1007C00005460E46504659464246FFF796FD0843F9
:1007D00005D0012004E020463946BDE8F08D002018
:1007E000054346EAE0762C4337430A986305E40A5A
:1007F000A0EB08000022FD0A44EA47540A3002D563
:1008000000200146E9E7010510196941DDE90845C5
:1008100000196941BDE8F04DA2E700000122102156
:10082000014800F0C3BA000000000240002210217D
:10083000014800F0BBBA00000000024010B50446B9
:10084000FFF7F4FF0B2001F0BFFA204601F0BCFADD
:10085000002001F0B9FA0446FFF7E0FF204610BD82
:10086000FEE77047082000F073B94FF4007000F005
:100870006FB972B6FEE7000070B5044600F09CFA4E
:100880000546601C02D004484068044400F094FA15
:10089000401BA042FAD370BD080000202DE9FF5F85
:1008A0007B4AB0F5007F7DD008287CD1022110461C
:1008B00000F074FA0B2001F065F904460C2001F0F9
:1008C00061F940EA042000B2FFF7E5FC714D2968A8
:1008D000FFF7A3FC81460D2001F054F904460E20D9
:1008E00001F050F940EA042000B2FFF7D4FC296877
:1008F000FFF793FC04460F2001F044F90646102050
:1009000001F040F940EA062000B2FFF7C4FC296874
:10091000FFF783FC0646112001F034F9054612204A
:1009200001F030F940EA052000B2FFF7B4FC5A4F5D
:100930003946FFF772FC8346132001F023F9054680
:10094000142001F01FF940EA052000B2FFF7A3FCD4
:100950003946FFF762FC8246152001F013F905467F
:10096000162001F00FF940EA052000B2FFF793FCD2
:100970003946FFF752FC80463046FFF795FC0646A5
:100980000F462046FFF790FC04460D464846FFF709
:100990008BFC8DE8F00002460B4640A001F0A0FB66
:1009A000404601E01CE070E0FFF77EFC06460F4683
:1009B0005046FFF779FC04460D465846FFF774FC95
:1009C0008DE8F00002460B4640A001F089FB3A207A
:1009D00001F0D8F804B03B20BDE8F05F01F0D2B8D8
:1009E0000121104600F0DAF90E20FFF727FF044638
:1009F0000F20FFF723FF44EA002004B21020FFF786
:100A00001DFF05461120FFF719FF45EA002005B23A
:100A10001220FFF713FF06461320FFF70FFF46EAE9
:100A2000002006B22046FFF736FC334909680F461E
:100A3000FFF7C1FB80462846FFF72DFC3946FFF73C
:100A4000BAFB04463046FFF726FC3946FFF7B3FBF6
:100A5000FFF72AFC06460F462046FFF725FC044612
:100A60000D464046FFF720FC8DE8F00002460B469D
:100A700022A001F035FB0B20FFF7E0FE04B0014699
:100A8000BDE8F05F2CA001F02BBBBDE8FF9F00008C
:100A900000040240040000200000034349434DBC11
:100AA000D3CBD9B6C858A3BA25660A49434DBCD39F
:100AB000CBD9B6C859A3BA25660A49434DBCD3CB96
:100AC000D9B6C85AA3BA25660D0A000049434DC7D6
:100AD000E3BDC758A3BA25660A49434DC7E3BDC75E
:100AE00059A3BA25660A49434DC7E3BDC75AA3BAFD
:100AF00025660D0A00000000000000204144584C0B
:100B0000333632BCD3CBD9B6C858A3BA25660A410E
:100B100044584C333632BCD3CBD9B6C859A3BA25C6
:100B2000660A4144584C333632BCD3CBD9B6C85A86
:100B3000A3BA25660D0A00004144584C3336325F93
:100B400073746174653D253032780D0A0000000031
:100B5000044910B50A68024202D00860FFF79EFE01
:100B600010BD0000140401402DE9F04FDFF80C9295
:100B7000002201250324A9F1040B85B00F2609F1F9
:100B8000040AABF1040EF0E005FA02F71CEA0703D1
:100B90007ED091F804C00CF0030CBCF1010F02D020
:100BA000BCF1020F26D1D0F808C0CDF800C04FEA42
:100BB000420C04FA0CF8CDF810C0DDF800C02CEAA5
:100BC000080CCDF800C0D1F80C80DDF810C008FA90
:100BD0000CF8DDF800C048EA0C08C0F80880D0F82E
:100BE00004C02CEA070C0F79C7F30017974047EAB7
:100BF0000C0747600F79FF43BF070ED0C7684FEA65
:100C0000420804FA08FC27EA0C07D1F808C00CFADD
:100C100008FC4CEA070CC0F80CC00F7907F003077A
:100C2000022F15D1D70800EB870702973F6A4FEADA
:100C3000427C4FEADC6806FA08FC27EA0C07D1F888
:100C400010C00CFA08FC4CEA070C029FC7F820C041
:100C500007684FEA420804FA08FC27EA0C0791F8F3
:100C600004C00CF0030C0CFA08FC4CEA070CC0F8AA
:100C700000C04F6817F4403F76D0414FD7F800C00E
:100C80004CF0010CC7F800C03F6807F0010700E016
:100C90006AE000973B4F22F0030C67440297BF685D
:100CA0004FEA827C4FEA1C7806FA08FC27EA0C0718
:100CB000DFF8D4C0604502D14FF0000C1DE0DFF832
:100CC000CCC0604502D14FF0010C16E0DFF8C0C087
:100CD000604502D14FF0020C0FE0DFF8B8C060456C
:100CE00002D14FF0030C08E0DFF8ACC0604502D140
:100CF0004FF0040C01E04FF0050C0CFA08FC4CEA34
:100D0000070C029FC7F808C0D9F80070CC46D1F88C
:100D100004809F435FEAC82800D51F43CCF80070C9
:100D2000DAF80070D446D1F804809F435FEA88283F
:100D300000D51F43CCF80070DBF80070DC46D1F81A
:100D400004809F435FEA883800D51F43CCF80070C9
:100D5000DEF80070F446D1F804809F435FEAC8389B
:100D600000D51F43CCF80070521C0B689C46D34042
:100D70007FF40AAF05B0BDE8F08F00000804014021
:100D80002038024000000140000002400004024000
:100D900000080240000C024000100240426921EAB3
:100DA00002030A4043EA0241816170470AB181614E
:100DB00070470904FBE700000148806870470000A5
:100DC0000800002002488168426811448160704731
:100DD0000800002010B50024032000F079F80F204F
:100DE00000F008F808B1012401E000F025F82046E1
:100DF00010BD000070B50E4E05460024706898B115
:100E00004FF47A71B1FBF0F00A490968B1FBF0F0D8
:100E100000F029FD40B9102D06D200222946501EAF
:100E200000F036F8356000E00124204670BD000077
:100E300008000020140000200D4808B5016841F0AA
:100E400000410160016801F000410091011F0A6842
:100E500042F001020A60096801F001010091016895
:100E600041F080510160006800F08050009008BDA2
:100E700024380240002809DB00F01F0201219140C4
:100E80004009800000F1E020C0F800117047000028
:100E9000F0B40E4B1B680C46C3F30223C3F10705E5
:100EA000042D00D90425191D072901D2002300E0D3
:100EB000DB1E012606FA05F1491E214099409E409D
:100EC000761E16403143F0BC01F01AB90CED00E07B
:100ED000064900F0070208684FF6FF03184040EA91
:100EE0000220034A10430860704700000CED00E048
:100EF0000000FA052DE9F0470E46050079D0DFF82D
:100F00008481D8F8000000F00100B04214D2012E14
:100F100005D1D8F8001041F00401C8F80010D8F845
:100F2000001021F001013143C8F80010D8F800008A
:100F300000F00100B0425CD12878534C800705D501
:100F40002068A96820F0F000084320602878C007D6
:100F50005CD04D496868083902281AD003281BD094
:100F6000096801281BD08905002966DA216821F06B
:100F7000030101432160FFF71FFF6968074641F243
:100F80008830022914D0032920D0012981462AD093
:100F900038E009688903E7E709688901E4E7890718
:100FA000E2E700BFFFF708FFC11B494501D926E072
:100FB00081462068C0F381000228F3D126E000BFFB
:100FC000FFF7FAFEC11B494501D918E081462068A8
:100FD000C0F381000328F3D118E000BFFFF7ECFE57
:100FE000C11B49450BD82068C0F381000128F5D109
:100FF0000CE022E0FFF7E0FEC11B494502D90320C7
:10100000BDE8F087206810F00C0FF3D1D8F800107D
:10101000404601F00101B14211D9012E03D101680E
:1010200041F004010160016821F0010131430160D8
:10103000006800F00100B04201D00120E0E728780C
:10104000400705D52068E96820F4E0600843206087
:101050002878000706D52068296920F4605040EA06
:10106000C100206000F038F82168084AC1F303117C
:10107000515CC8400649086006480068BDE8F04772
:10108000FFF7B8BE003C024008380240812A000841
:101090001400002008000020044805490068096881
:1010A000044AC1F30221515CC8407047140000207B
:1010B00008380240912A0008044805490068096878
:1010C000044AC1F3C221515CC8407047140000209B
:1010D00008380240912A000870B5154D2968154856
:1010E00001F00C02042A0CD0134C082A0AD00C2A56
:1010F0000AD0281F0068C0F342314FF40040491C59
:10110000884070BD204670BD0C4AC1F38343D35C58
:10111000C1F381522968521CC90302D5A3FB040103
:1011200001E0A3FB00010023FFF702F870BD0000FF
:10113000083802400024F40000366E01782A0008C6
:101140002DE9F84F04007DD0FC480168006801F0EB
:101150000C0700F480362078F94DC00741D0082FE5
:1011600012D00C2F02D1B6F5803F0DD06068012857
:1011700011D008B1052818D0286820F480302860E4
:10118000286820F4802009E02868800329D5606859
:101190000028D8D025E0286840F4803028606068B6
:1011A00090B1FFF709FE80460AE0286840F48020ED
:1011B0002860F0E7FFF700FEA0EB080064287BD86A
:1011C00028688003F6D50CE0FFF7F6FD804605E0C1
:1011D000FFF7F2FDA0EB08006428F0D82868800330
:1011E000F6D42078DFF85CB3DFF85C8380074FF03B
:1011F00001094FF0000A35D5042F0AD00C2F00D179
:101200003EB1E068F8B1C8F80090FFF7D5FD06469A
:101210000BE0286880070BD5E068012812D107E0B1
:10122000FFF7CAFD801B0228C9D828688007F7D5B8
:10123000DBF80010226921F4F85141EA0221CBF8D1
:1012400000100FE077E1C8F800A0FFF7B5FD0646F3
:1012500005E000BFFFF7B0FD801B0228AFD828686B
:101260008007F7D42078C00674D53FB1A069E0B3F9
:10127000C8F82090FFF7A0FD06464AE028688005E0
:1012800002D5A069002884D0206ADBF800105E46F1
:1012900001F46041884210D900F02AFD0028BDD138
:1012A0003068216A20F4604008433060217F306854
:1012B00061F31F6030600FE096E0316821F4604117
:1012C00001433160217F306861F31F603060206A24
:1012D00000F00EFD0028A1D1216A4FF4004009EB77
:1012E000513188409549096800E025E0974AC1F3EB
:1012F0000311515CC8409649086096480068FFF7A2
:1013000079FD00286FD125E0FFF756FD801B0228EC
:101310006AD828688005F7D5DBF80010226A21F426
:1013200060411143CBF80010227FDBF8001062F31C
:101330001F61CBF800100DE0C8F820A0FFF73CFDBE
:10134000064604E0FFF738FD801B02284CD82868C9
:101350008005F7D42078804E000722D57F48616948
:1013600081B1C0F80090FFF727FD834606E000BF7B
:10137000FFF722FDA0EB0B00022835D8306880076C
:10138000F6D50EE0C0F800A0FFF716FD834605E095
:10139000FFF712FDA0EB0B00022825D8306880076C
:1013A000F6D4207840076DD56B484FF0000B10380D
:1013B0000068C0000BD468481038016841F08051C3
:1013C000016000684FF0010B00F08050009064480D
:1013D0000168C90514D4016841F480710160FFF708
:1013E000EBFC009008E08DE079E000BFFFF7E4FC43
:1013F0000099401A642872D859480068C005F5D58C
:10140000A06801280AD008B1052811D0306820F45E
:1014100080703060306820F4806002E0306840F412
:1014200080703060A068A8B1FFF7C6FC00900DE0A6
:10143000306840F480603060F0E700BFFFF7BCFC2C
:101440000099411A41F2883081425AD830688005AB
:10145000F4D50EE0FFF7B0FC009007E0FFF7ACFC1E
:101460000099411A41F2883081424AD8306880059B
:10147000F4D4BBF1000F05D037481038016821F0D3
:1014800080510160606A58B30C2F41D00228504649
:1014900005D0C8F86000FFF78FFC044634E04746EB
:1014A000C8F86000FFF788FC064604E0FFF784FCFC
:1014B000801B022825D828688001F7D4D4E90A10B7
:1014C00001431E48226B036823F47D031A43114332
:1014D0000160C7F86090FFF76FFC044607E010E07A
:1014E00040E000BFFFF768FC001B022809D828680D
:1014F0008001F7D536E000BFFFF75EFC001B022835
:1015000002D90320BDE8F88F28688001F4D429E0CF
:101510000128F7D009480068A26A00F4803191429E
:1015200009D1E26A00F47011914204D1216B00F4F8
:101530004000884216D00120E4E70000083802404D
:10154000003802400438024000004742812A000867
:101550001400002008000020343802408006474272
:10156000007000400020CDE770B5040009D0606A2B
:10157000002540B125616561A56294F8510040B134
:101580000CE0012070BD6068B0F5827FF4D0E561A9
:10159000F2E784F85050204600F03AF8022084F830
:1015A00051002068016821F040010160A088218974
:1015B00000F4827001F404410843A18901F4006140
:1015C0000843217C01F002010843217D01F0010163
:1015D0000843218B01F400710843217F01F0380199
:1015E000084394F8201001F080010843218D01F494
:1015F0000051084321680860A069042101EA1040F5
:10160000216848606565012084F85100002070BDA4
:1016100010B586B0044614216846FEF7C1FD134993
:101620002068884220D11248016841F4805101604D
:10163000006800F4805005900D48001F016841F0DB
:10164000010101600068694600F001000590E0209A
:1016500000900220019000200290032003900520BA
:1016600004900448FFF780FA06B010BD0030014036
:1016700020380240000002402DE9FF4F81B00446AF
:1016800090F8500000260E9F1D4693464FF001092A
:1016900001280FD04FF0010A84F850A0FFF78CFB0F
:1016A000804694F85100616801280DD0B1F5827F21
:1016B00008D103E0022005B0BDE8F08FA16809B9A8
:1016C000042801D00226C9E00298002865D0BBF1A9
:1016D000000FFBD0002DF9D094F85100042802D05F
:1016E000052084F8510000206065C4F838B0E58713
:1016F000A58702992163E586A58620646064206839
:101700000168490603D4016841F040010160E068C6
:10171000B0F5006F606803D0F0B3012D47D081E0D1
:1017200008B1012D3CD1206B21680088C860206B76
:10173000801C2063E08E401EE08631E020688168D6
:1017400089070FD5E18E69B1B9F1010F0AD1216B7B
:101750000988C160206B801C2063E08E401EE086FB
:101760004FF0000920688168C9070CD0E18F51B1A2
:10177000C068A16B0880A06B801CA063E08F401E36
:10178000E0874FF00109FFF717FBA0EB0800B84214
:1017900006D3781C04D001E009E05BE003265BE09F
:1017A000E08E0028CAD1E08F0028C7D140E0206B2E
:1017B000216800780873206B401C2063E08E401E77
:1017C000E0862FE02068816889070FD5E18E69B136
:1017D000B9F1010F0AD1216B09780173206B401C0C
:1017E0002063E08E401EE0864FF00009206881688B
:1017F000C9070CD0E18F51B1C068A16B0870A06B14
:10180000401CA063E08F401EE0874FF00109FFF706
:10181000D3FAA0EB0800B84202D3781C02D0BAE792
:10182000002FB8D0E08E0028CCD1E08F0028C9D19D
:1018300042463946204600F09BFA18B10126202086
:1018400060650BE0A06818B92068C16880680090E6
:10185000606D08B1012601E084F851A0002084F8F1
:101860005000304627E710B5401EB0F1807F01D30D
:10187000012010BD4FF0E02460610F21601700F0DF
:101880003FFC0020A06107202061002010BD70B542
:10189000040004D094F84100002510B106E00120B6
:1018A00070BD84F84050204600F024F8242084F8CD
:1018B00041002068C16821F40051C160204600F059
:1018C00043FB2068016921F490410161206841696E
:1018D00021F02A0141612068C16841F40051C160D2
:1018E0006564202084F8410084F84200656300208C
:1018F00070BD000010B586B0044614216846FEF79E
:101900004FFC14492068884221D11348016841F4F2
:1019100080410160006800F4804005900E48001F7F
:10192000016841F0010101600068694600F00100B2
:1019300005904FF4C06000900220019000200290BA
:1019400003200390072004900448FFF70DF906B028
:1019500010BD000000380140203802400000024065
:101960002DE9F843044690F841001F4616460D46FF
:10197000202802D00220BDE8F8837DB176B1002096
:101980006064212084F84100FFF716FAA68480469F
:10199000E684A068B0F5805F02D003E00120EAE7AA
:1019A000206910B12E4600250EE000260CE08021B3
:1019B000204600F057FBA0B9AEB116F8010B216824
:1019C0004860E08C401EE084E08C43464FF000020B
:1019D00000970028EBD14FF04001204600F042FB79
:1019E00030B10320C7E735F8020BC0F30800E6E783
:1019F000202084F841000020BDE7FEE701225103CA
:101A00000148FFF7D3B900000008024000224FF45C
:101A100000510148FFF7CAB9000802400C4800B560
:101A2000016887B041F0040101600068022100F004
:101A3000040005904FF4005000900120CDE9020110
:101A4000019069460348FFF78FF807B000BD00001A
:101A50001C3802400008024070B52FA000F040FB87
:101A60000A211F2000F09EF83220FEF705FF3221E8
:101A70004B2000F076F832214C2000F072F8322131
:101A80004D2000F06EF86921202000F08BF86A21CB
:101A9000212000F087F80321272000F083F803219C
:101AA000062000F07FF807212C2000F07BF875203D
:101AB00000F068F804464FF47A7510E01BA000F0BF
:101AC0000FFB00211F2000F06DF82846FEF7D4FE22
:101AD0000A211F2000F066F82846FEF7CDFE672C8D
:101AE000ECD1212000F04EF8C0F34111144831B17F
:101AF000012907D0022908D003290CD108E04FF0B2
:101B00008A4101604FF08B4101604FF08C410160D0
:101B10004FF08D41016070BDC5E4D6C349434DCE41
:101B2000AA576F4DC4A3CABD0D0A0000B4EDCEF391
:101B3000A3ACB8B4CEBBC9E8B1B80D0A0000000030
:101B40000400002010B5044600217C2000F02AF893
:101B500021467D2000F026F8BDE810407E2000F0F0
:101B600011B870B50D4604460021792000F01AF82E
:101B700021467A2000F016F82946BDE870407B2007
:101B800000F010B810B50446FFF740FF44F08000A5
:101B900000F01AF9002000F017F90446FFF72EFFB5
:101BA000204610BD70B50D460446FFF72FFF2046B6
:101BB00000F00AF9284600F007F9BDE87040FFF789
:101BC0001DBF000070B586B014216846FEF7E8FA24
:101BD0002348016841F004010160016801F004013B
:101BE0000591016841F001010160016801F0010106
:101BF0000591016841F0020101600068022500F0D2
:101C0000020005904FF4027000904FF48810CDE967
:101C10000105144E69463046FEF7A6FF01240094E4
:101C20000194694610480294FEF79EFF40F20710A7
:101C30008DE8310069463046FEF796FF00221146D6
:101C40001720FFF725F91720FFF714F901220021CB
:101C50000920FFF71DF90920FFF70CF906B070BD48
:101C60001C38024000040240000002400F4810B53A
:101C70000D4901604FF48271416000218160C160B3
:101C80004FF400720161C0E90512C1610162416255
:101C900081620A21C162FFF767FC002803D0BDE81A
:101CA0001040FEF7E6BD10BD003001401C000020D2
:101CB0000C4810B50A4901604FF4165141600021EB
:101CC00081600C22C160C0E904128161C161FFF72B
:101CD000DEFD002803D0BDE81040FEF7CABD10BDF0
:101CE0000038014074000020FEE7FEE77047000066
:101CF00038B51C49002309681B4A11F0F00F23D1A5
:101D000018491C310C68E500184C03D5216801F412
:101D1000C0540EE00D6845F080550D600D6805F06B
:101D20008055009524680D6804F4C05425F0805552
:101D30000D60B4F5C05F07D1B0F5404F04D1106815
:101D4000012340F004001060106820F001001843E7
:101D50001060106800F00100984201D0012038BDE9
:101D6000002038BD08380240003C024000700040AE
:101D700038B504461248134B0068B0FBF3F04FF43B
:101D80007A73584300906068B0F5827F0DD10B469E
:101D9000009200228021204600F03CF870B1606D76
:101DA00040F020006065032038BD009830B1401E2F
:101DB000009020688068C0430006F6D5002038BD3A
:101DC0001400002000366E0101B582B000208DF8AD
:101DD0000400401E0090012301AA02A90548FFF754
:101DE0004BFC20B19DF8081003A000F079F99DF894
:101DF00004000EBD1C000020535049B4ABCAE4B42B
:101E0000EDCEF32CB4ABCAE4D6B5CEAA3A25303227
:101E1000780D0A002DE9F8431E469146884604468F
:101E2000089DFEF7C9FF401B351AFEF7C5FF0746A0
:101E300025480068C0F3CB30684338E0701C37D0C9
:101E4000FEF7BAFFC01BA84203D215B1009860B3D9
:101E50002CE02068416821F0E00141606068B0F545
:101E6000827F0BD1A068B0F5004F02D0B0F5806F33
:101E700004D12068016821F040010160A06AB0F53A
:101E8000005F09D12068016821F4005101602068D9
:101E9000016841F400510160012084F851000020E4
:101EA00084F850000320BDE8F8830025401E009010
:101EB0002068816838EA010004D000214945BDD17D
:101EC0000020F0E70121F9E7140000207047FEF739
:101ED00079BF000010B592B034216846FEF760F972
:101EE00014210DA8FEF75CF91548016821F4C051D2
:101EF00041F4006101600121039102201021009052
:101F000000240491CDE9090440040B9040010C9099
:101F10006846FFF715F908B172B6FEE70F200D907D
:101F20000320CDE90E04109401210DA81194FEF7B1
:101F3000E1FF002801D072B6FEE712B010BD00002C
:101F400000700040704700002DE9F0410446006831
:101F50000169E26821F44051114301612169A068DF
:101F6000E26908436169114322680843D16849F274
:101F70000C6399430143D16020684169A26921F44F
:101F800040711143416136492068884202D1FFF710
:101F900093F801E0FFF780F80246E36964203221FC
:101FA000B3F5004F02EBC20303EB021362682BD0C0
:101FB0009200B3FBF2F5B5FBF0F5B3FBF2F66FF070
:101FC00018077D4306EB8505B3FBF2F601EB05151B
:101FD000B5FBF0F5B6FBF0F605F0F00505EB0615E0
:101FE000B3FBF2F6B3FBF2F2B2FBF0F27A4306EB8C
:101FF000820201EB0211B1FBF0F000F00F0021684A
:1020000028448860BDE8F0815200B3FBF2F6B6FBCD
:10201000F0F6B3FBF2F7B3FBF2F56FF0180C06FB2A
:102020000CF607EB860601EBC606B5FBF0F5B6FB32
:10203000F0F62D0106F0F80605EB4605B3FBF2F6C7
:10204000B3FBF2F2B2FBF0F202FB0CF206EB8202FF
:1020500001EBC201B1FBF0F000F00700CFE7000098
:10206000003801402DE9F041984617460E460446D7
:10207000069D27E0681C25D02DB1FEF79DFEA0EB44
:102080000800A8421ED920680C3050E8001F21F437
:10209000D07140E80012002AF5D12068143050E8D1
:1020A000001F21F0010140E80012002AF5D1202094
:1020B00084F8410084F84200002084F840000320A6
:1020C000BDE8F0812068006836EA000004D00020F6
:1020D000B842CFD00020F3E70120F9E7FEE7000087
:1020E0000FB4054B10B503A9044A029800F0EAF8B2
:1020F00010BC5DF814FB0000CD290008180000207A
:102100000907090E002804DB00F1E02080F8001424
:10211000704700F00F0000F1E02080F8141D7047B8
:1021200002E008C8121F08C1002AFAD170477047A0
:10213000002001E001C1121F002AFBD170470000FE
:102140002DE9FF5F82B00021DDE90430020DDDF8EA
:1021500040B0034318D044F61050A2F2FF3242437D
:102160001514119801281FD0A5EB0B00401C5FEA45
:10217000000A4FF000064E4FDFF83891B046504647
:1021800015D5CAF1000413E0119801244AA30128CF
:1021900001D16FEA0B010298119AC0E90031C0E940
:1021A000024206B0BDE8F09FCBF10000DFE7044635
:1021B0000021404A491842EB0450CDE9001012E0DA
:1021C000E00707D032463B4640464946FEF792F9C3
:1021D0008046894632463B4610461946FEF78AF944
:1021E00006460F466410002CEAD1DDE90401DDE962
:1021F0000023BAF1000F06DAFEF77CF942464B469F
:10220000FEF778F905E0FEF7E7F942464B46FEF7A0
:10221000E3F904460E460022284BFEF765FA03D880
:102220004FF0FF30014607E00022254B20463146A3
:10223000FEF7B9F8FEF73FFA102409E0002C0ADB9C
:102240000A220023FDF774FF039B30321A55641EE7
:1022500050EA0102F2D1641C039AC4F11103144440
:10226000119A012A03D0012208430DD10AE0084344
:1022700004D000204FF0110B119072E7A3EB0B0577
:102280006D1E0DE05B4504DD4FF0000205F1010518
:1022900004E003DA4FF00002A5F10105002AECD0BA
:1022A00002981199C0E90231C0E9004579E70000C0
:1022B000000014400000F03F300000000000F04338
:1022C0000000E03F2DE9FF4F95B09A46884606464C
:1022D0000025EEE1252877D100242746F94A01217F
:1022E000039400E0044316F8013F203B01FA03F099
:1022F0001042F7D130782A2811D06FF02F033078B0
:10230000A0F13002092A16D8039A44F0020402EB25
:10231000820203EB42021044761C0390EFE758F868
:10232000042B0392002A03DA504244F40054039031
:1023300044F00204761C30782E2816D116F8010FCE
:1023400044F004042A280DD06FF02F023078A0F159
:102350003003092B09D807EB870302EB4303C718A7
:10236000761CF3E758F8047B761C30786C280FD085
:1023700006DC4C2817D068280DD06A2814D104E058
:10238000742810D07A280FD10DE044F400140AE02C
:1023900044F4801401E044F440147278824202D183
:1023A00004F58014761C761C307866280BD013DC7C
:1023B000582877D009DC002875D04528F6D0462863
:1023C000F4D047281AD193E118E0632835D0642867
:1023D00079D0652812D18BE1702873D008DC67288A
:1023E000F1D069286FD06E280DD06F2806D1ACE0EF
:1023F00073282CD0752874D0782853D0524617995A
:1024000090476D1C54E1C4F30250022809D0032800
:102410000DD0D8F8001004280DD00D6008F1040884
:1024200046E1D8F80010EA17C1E90052F6E7D8F8FB
:1024300000100D80F2E70D70F0E718F8041B8DF81E
:10244000001000208DF80100EB46012003E058F851
:1024500004BB4FF0FF3061074FF0000102D40DE0E4
:1024600009F101018946B9420FDA8145F8DB1BF811
:1024700009100029F4D108E009F1010189468142DF
:10248000FADB1BF809100029F6D103985346A0EB9C
:10249000090721463846179A00F080FA284400EBD5
:1024A000090507E044E008E10DE01BF8010B524686
:1024B00017999047B9F10109F7D25346214638469A
:1024C000179AF2E039E00A21C4F302524FF0000BF0
:1024D0000091022A06D058F8040BC117032A09D02C
:1024E0000AE023E008F1070020F00702F2E8020109
:1024F000904605E000B2C117042A01D140B2C117CD
:10250000002906DA0A460021404261EB02012D2231
:1025100002E0220504D52B228DF80420012203E0DD
:10252000E20701D02022F7E7914657E00A2100E0B8
:1025300010214FF0000B00910BE010214FF0000B29
:1025400044F004040827009103E008204FF0000B3A
:102550000090C4F30252022A05D058F8040B00215F
:10256000032A08D008E008F1070020F00702F2E88B
:102570000201904603E080B2042A00D1C0B24FF0BD
:10258000000922072AD53278702A07D0DDF800C06A
:102590008CF0100C5CEA0B0C05D00EE040228DF89C
:1025A0000420012208E050EA010306D030238DF810
:1025B00004308DF8052002229146009B83F0080329
:1025C00053EA0B030AD150EA010201D1620705D593
:1025D00030228DF804204FF001097F1E3278582AEE
:1025E00004D039A20C920CAA02920BE03BA2F9E7AC
:1025F0005B46009AFDF79CFD0C9B9B5C029A521E69
:102600000292137050EA0102F2D1029804A9081A4A
:1026100000F1200B600702D524F4803400E001278C
:102620005F4502DDA7EB0B0000E0002000EB0B0193
:10263000009003984944401A0390E00306D453469F
:102640002146179A039800F0A9F90544002706E0EF
:1026500001A85246C05D179990476D1C7F1C4F45DD
:10266000F6DBE0030CD553462146179A039800F099
:1026700095F9054404E030205246179990476D1CA7
:102680000099481E00900029F5DC08E002980299A4
:1026900052460078491C0291179990476D1CBBF176
:1026A0000001ABF1010BF1DC5BE100F065F90544E1
:1026B000761C307800287FF40DAE19B02846BDE8AE
:1026C000F08F0000092801003031323334353637BD
:1026D000383961626364656600000000303132336E
:1026E000343536373839414243444546000000000E
:1026F000600700D4062708F1070020F00700F0E883
:102700000223804603F0004C5FEA0C0001D097A042
:1027100009E0200501D596A005E0E00701D095A0CD
:1027200001E0AFF24C001390307823F000436528AD
:102730000CD006DC452809D046281DD047287FD17B
:102740003BE0662818D067287AD136E00021112FA7
:1027500001DB112000E0781CCDE9000104A90CA8E0
:10276000FFF7EEFCDDE90D010C9A4FF0000B07F1CD
:102770000109109200914EE04FF000400097CDE922
:10278000011004A90CA8FFF7DBFCDDE90D020C9B8E
:102790000F994FF0000B91461093009211B9791CDC
:1027A00000EB0109B7EB090003D4C0F1FF3B07F1CF
:1027B0000109A9EB0700019042E0012F00DA01278F
:1027C0000021112F01DD112000E03846CDE9000184
:1027D00004A90CA8FFF7B4FCDDE90D010C9A0091E7
:1027E0004FF0000BB946109221070FD4009A4A45CA
:1027F00003DA914601E0A9F10109B9F1010F05DD04
:10280000109AA9F10101515C3029F4D0B84202DAE2
:1028100010F1040F03DA0121CDE9011010E00028C6
:1028200003DC8344A9EB000102E0411C494500DDC3
:102830008946A0EB0B00401C01904FF00040029035
:10284000200705D40198484502DB4FF0FF30019086
:1028500000208DF84B0002980DF14B07B0F1004FAE
:1028600025D002200C902B200D90029800280CDA25
:10287000404202902D200D9007E00A210298FDF7BA
:1028800026FD3031029007F8011D0C99481E0C906E
:102890000029F2DC02980028EFD1791E0D9808700B
:1028A000307800F0200040F0450007F8020D11A834
:1028B000C01BC01D02901398007800B1012000EBEE
:1028C0000901019801EBE071029801440398401A54
:1028D000401E0390E00306D453462146179A0398FE
:1028E00000F05CF805441398007818B15246179927
:1028F00090476D1CE00323D553462146179A039851
:1029000000F04CF805441BE0BBF1000F07DB00981A
:10291000584504DD1098179910F80B0001E017993D
:1029200030205246904701980BF1010B401E05F1F3
:102930000105019004D12E205246179990476D1C35
:10294000B9F10001A9F10109DEDC05E017F8010B7E
:102950005246179990476D1C0299481E0290002913
:10296000F4DC53462146179A03989EE62D0000009A
:102970002B000000200000002DE9F0410446002556
:102980001E461746880404D405E039462020B04787
:102990006D1C641EF9D52846BDE8F0812DE9F04193
:1029A000044600251E469046C80301D5302700E0A6
:1029B0002027880404D505E041463846B0476D1C01
:1029C000641EF9D52846BDE8F081000013B54FF626
:1029D000FF73012269460248FEF7C2FF00981CBD42
:1029E00074000020FEF7F6F9FFF774FAFFF7EAF833
:1029F000FFF73CF9FFF75CF9FFF710F814A0FFF7B9
:102A00006FFB164C012204212046FEF7CFF901226C
:102A100011022046FEF7CAF9012202212046FEF7E4
:102A2000C5F94FF47A70FDF727FFFFF715F84D2031
:102A3000FFF788F801460AA0FFF752FB4FF4FA644B
:102A40000AA0FFF74DFB2046FDF716FFF8E7000050
:102A500073746172742121210D0A00000004024088
:102A6000726561643D2532780D0A000072756E6EE4
:102A7000696E672E2E2E0A00030406080C1018201B
:102A800030000000000000000001020304060708F7
:102A9000090000000001020304000000BC2A000835
:102AA000000000201C00000020210008D82A000897
:102AB0001C000020A440000030210008000000009D
:102AC00000000000100000000100000000000000F5
:082AD00068FF1F000000000078
:04000005080000F5FA
:00000001FF
