:020000040800F2
:10000000680700200D0100081D3C0008BF1D000806
:100010001B3C0008F10A0008CD3F0008000000006A
:10002000000000000000000000000000C93D0008C2
:10003000F30A0008000000001F3C0008CB3D000848
:1000400027010008270100082701000827010008F0
:1000500027010008270100082701000827010008E0
:1000600027010008F50A00082701000827010008F9
:1000700027010008270100082701000827010008C0
:1000800027010008270100082701000827010008B0
:1000900027010008270100082701000827010008A0
:1000A00000000000270100082701000827010008C0
:1000B0002701000827010008270100082701000880
:1000C0002701000827010008270100082701000870
:1000D0002701000827010008270100082701000860
:1000E0002701000827010008270100082701000850
:1000F00027010008DFF810D000F07CFC0048004722
:10010000494D0008AFF3008068070020064880478B
:1001100006480047FEE7FEE7FEE7FEE7FEE7FEE7EC
:10012000FEE7FEE7FEE7FEE7353E0008F5000008C3
:100130002DE9F05F0546002092469B46884606461C
:10014000814640241BE0284641464746224600F0AF
:1001500085FA53465A46C01A914110D311461846A3
:10016000224600F06CFA2D1A67EB01084F46224632
:100170000120002100F063FA17EB00094E41201E18
:10018000A4F10104DFDC484631462A464346BDE877
:10019000F09F40EA01039B0703D009E008C9121F42
:1001A00008C0042AFAD203E011F8013B00F8013B31
:1001B000521EF9D27047D2B201E000F8012B491E5D
:1001C000FBD270470022F6E710B513460A460446F4
:1001D0001946FFF7F0FF204610BDF0B480EA010297
:1001E000D40F4200B2EB410F02D20246084611463C
:1001F0004A0042D0C30DDDB2C1F3C752AD1A202D63
:1002000035DAC1F3160141F4000204B15242C5F1DE
:10021000200602FA06F12A411044B3EBD05F23D046
:10022000C4B1012DA0EBC35009DCF0BC4FF000427B
:1002300002EAC352DBB200F5000000F028BA400029
:1002400000F1807000EBC350A0F1807040EAD170E3
:10025000490009E0490841EAC071A0EBC35000F52C
:100260000000400800EBC350F0BC00F007BA614248
:10027000012202EB4101001BF6E7F0BC704781F060
:100280000041AAE780F00040A7E780EA010210B52C
:1002900002F00043400022D04A001FD0010E01EBC3
:1002A0001261C0F35600C2F3560240F4000042F45B
:1002B0000002A0FB022000047F39140400D0401C7F
:1002C00050EA124001D44000491EC2B20C0604EBB1
:1002D000D010401C4008802A02D003E0002010BD4E
:1002E00020F00100002900DA0020184310BD30B4CE
:1002F00080EA010202F0004530F0004221F00040A7
:1003000013D090B1C30DD40DC2F31601C0F3160083
:10031000E41A41F4000140F400027D34914201D31B
:10032000641C00E04900002C02DA30BC0020704759
:100330004FF400000023914201D3891A034340087F
:100340004FEA4101F7D151B1914202D14FF0004142
:1003500005E002D24FF0010101E06FF0010103EB73
:10036000C450284430BC00F089B9420005D0C0F325
:10037000C7525242914201DC0020704700EBC1504D
:1003800070472DE9FE4F81EA030404F0004421F098
:10039000004100944FF0000B23F0004350EA0104A9
:1003A0005ED052EA03045BD0C3F30A54C1F30A558A
:1003B0002C44A4F2F3340194A0FB0254C1F31301C2
:1003C00041F48011C3F3130343F4801301FB02448F
:1003D00000FB034E840A970A44EA815447EA835794
:1003E000A4FB076802958D0A05FB07854FEA932C4D
:1003F00004FB0C542705029D4FEA065847EA1637BE
:10040000B5EB08056EEB070C870E920E47EA8117D5
:1004100042EA8312A7FB0201B6EB0B0164EB000476
:100420002B0D43EA0C335E1844EB1C50DA46514660
:10043000E7FB0201C5F313044FEA0B3343EA1453FD
:100440004FEA0432019C43EA0603A4F10C0402942F
:10045000009CCDE900B400F057F903B0BDE8F08F7F
:1004600000200146F9E72DE9F04D81EA030404F08C
:10047000004B21F0004514464FF0000A23F00041E4
:1004800050EA050220D054EA01021DD0C5F30A57F4
:100490000246C5F31303C1F31300C1F30A5640F437
:1004A000801543F48013A7EB0608101BD64608F20C
:1004B000FD3873EB050002D308F1010801E0921842
:1004C0005B41B8F1000F03DA00200146BDE8F08D72
:1004D00000204FF48011064684460EE0171B73EB94
:1004E000050705D3121B63EB050306434CEA010C19
:1004F00049084FEA300092185B4150EA0107EDD1FC
:1005000052EA030012D082EA040083EA050108439C
:1005100005D0101BAB4106D20122002306E00022C9
:100520004FF0004302E06FF0010253101AEB060097
:100530004CEB085110EB0A0041EB0B01BDE8F04D0C
:1005400000F0D3B8C10F80EAE0700844CA079623D0
:10055000002100F09CB896230022114600F097B8C5
:100560000EB5C10F80EAE0700844CA07002140F2CE
:1005700033438DE80E000A460B4600F0C5F803B081
:1005800000BD00F0004220F00040C10DC0F3160095
:1005900040F400007F2901DA00207047962903DC2F
:1005A000C1F19601C84001E096398840002AF4D094
:1005B0004042704700F0004230F000400AD0C10DC8
:1005C00001F56071C0F3160042EA0151C20840070C
:1005D0001143704700200146704701F0004330B4DA
:1005E00021F0004150EA010206D00A0DA2F5607226
:1005F000C1F31301002A02DC30BC00207047440F15
:1006000044EAC104C100E01830BC00EBC25000F065
:1006100035B830B50B46014600202022012409E000
:1006200021FA02F59D4205D303FA02F5491B04FAAB
:1006300002F52844151EA2F10102F1DC30BD202A8A
:1006400004DB203A00FA02F1002070479140C2F129
:10065000200320FA03F3194390407047202A04DB5B
:10066000203A21FA02F00021704721FA02F3D0402B
:10067000C2F1200291400843194670470029A8BFE3
:100680007047401C490008BF20F00100704710B4BB
:10069000B0FA80FC00FA0CF050EA010404BF10BC70
:1006A000704749B1CCF1200421FA04F411FA0CF19D
:1006B00018BF012121430843A3EB0C01CB1D4FEAD6
:1006C00000614FEA102042BF002010BC704700EBD1
:1006D000C35010440029A4BF10BC7047401C4900FF
:1006E00008BF20F0010010BC704710B5141E73F154
:1006F000000408DA401C41F1000192185B411A43E2
:1007000001D120F0010010BD2DE9F04D92469B462D
:1007100011B1B1FA81F202E0B0FA80F220329046D3
:10072000FFF78DFF04460F4640EA0A0041EA0B013D
:1007300053465A46084313D0114653EA010019D0D4
:10074000C8F140025046FFF789FF05460E46504665
:1007500059464246FFF773FF084305D0012004E0E5
:1007600020463946BDE8F08D0020054346EAE07694
:100770002C4337430A986305E40AA0EB08000022E3
:10078000FD0A44EA47540A3002D500200146E9E751
:10079000010510196941DDE9084500196941BDE805
:1007A000F04DA2E72DE9FE4F804681EA0300C00F1D
:1007B0000C46009021F0004123F00045B8EB020008
:1007C000A94105D24046214690461C460B460246AA
:1007D00023F00040104347D0270DC7F30A00C3F3AE
:1007E0000A510290401A019040286BDAC3F31300BB
:1007F00040F4801B0098924620B10023D2EB030AFC
:1008000063EB0B0B01985946C0F140025046FFF7CD
:1008100016FF06460D4650465946019A00F0FCF870
:1008200010EB08006141002487EA115284EAE77363
:100830001A4340D0009A62B3019A012A4FEA075244
:1008400015DC001B61EB02014FF0004202EA075287
:10085000CDE90042001C41F5801132462B46FFF7DE
:1008600053FF03B0BDE8F08F40462146F9E7001B77
:1008700061EB0201001C41F5801300185B41201858
:10088000A2F5001747EB030140EAD570B6196D4198
:1008900011E06D084FEA360645EAC0754FEA075287
:1008A000001B61EB0201001C41F5801149084FEA71
:1008B00030000019514132462B4603B0BDE8F04FDD
:1008C000FFF713BF0098012240000023D0EB020283
:1008D00063EBE073009821464FEAE074B8EB000048
:1008E00061EB0401E9E783F000435BE781F000413D
:1008F00058E72DE9F04D00231A461B1A8A4103DB05
:1009000000200146BDE8F08DC1F30A52C1F3130186
:1009100041F480154FF0000BD10702D100186D4152
:10092000521E0027044640F2FF11384601EB620ACE
:100930003E468046024600204FF48011FFF78EFEAF
:10094000C2197141BB1846EB0100B4EB030C75EB07
:10095000000C04D3E41A65EB000517460E46241973
:1009600008F101006D4180463428E3DDF91946EBBA
:100970000600091BA84103D24FF0FF32134601E0E5
:10098000002213461BEB070046EB0A51BDE8F04D71
:10099000FFF7ABBEC1F30A52C1F3130140F2FF33BC
:1009A00041F480119A4202DA00200146704740F279
:1009B00033439A42A2F2334202DC5242FFF74EBE68
:1009C000FFF73DBE30B5041E71F1000404DB4FF0AB
:1009D0000044404264EB0101141E73F1000405DB86
:1009E0001C464FF00043524263EB0403994208BF98
:1009F000904230BD064C074D06E0E06840F0010330
:100A000094E8070098471034AC42F6D3FFF776FB22
:100A1000E44E0008044F0008202A06DBCB17203ADA
:100A200041FA02F043EAE07306E041FA02F3D040F3
:100A3000C2F120029140084319467047F0B40028E3
:100A400002DCF0BC00207047C0F3C751C0F31600B1
:100A500040F40000CA0701D14000491E3F2202EBCA
:100A60006105002211464FF4000626FA01F31344F3
:100A7000D418844201D8001B1A464000491C17298B
:100A8000F3DD5100814202D24FF0FF3100E000213E
:100A900002EBC550F0BCFFF7F1BD70B58C1810F833
:100AA000015B15F0070301D110F8013B2A1106D1B3
:100AB00010F8012B03E010F8016B01F8016B5B1ECD
:100AC000F9D12B0705D40023521E0DD401F8013BA8
:100AD000FAE710F8013BCB1A921C03E013F8015B14
:100AE00001F8015B521EF9D5A142D8D3002070BD98
:100AF000FEE77047082000F0EBB872B6FEE7000092
:100B000070B5044600F018FA0546601C02D004488F
:100B10004068044400F010FA401BA042FAD370BDB4
:100B2000CC0100202DE9FF5F08287DD102214E482D
:100B300000F0F4F90B2001F03DFE04460C2001F01A
:100B400039FE40EA042000B2FFF7FCFC474D29685B
:100B5000FFF7CDFB81460D2001F02CFE04460E2050
:100B600001F028FE40EA042000B2FFF7EBFC296800
:100B7000FFF7BDFB04460F2001F01CFE06461020C7
:100B800001F018FE40EA062000B2FFF7DBFC2968FE
:100B9000FFF7ADFB0646112001F00CFE05461220C2
:100BA00001F008FE40EA052000B2FFF7CBFC304F11
:100BB0003946FFF79CFB8346132001F0FBFD0546F9
:100BC000142001F0F7FD40EA052000B2FFF7BAFC5F
:100BD0003946FFF78CFB8246152001F0EBFD0546F8
:100BE000162001F0E7FD40EA052000B2FFF7AAFC5D
:100BF0003946FFF77CFB80463046FFF7DBFC0646B4
:100C00000F462046FFF7D6FC04460D464846FFF740
:100C1000D1FC8DE8F00002460B4616A003F0D8F98F
:100C20004046FFF7C7FC00E01CE006460F46504672
:100C3000FFF7C0FC04460D465846FFF7BBFC8DE8A5
:100C4000F00002460B4617A003F0C2F93A2001F06B
:100C5000B1FD3B2001F0AEFD04B03C20BDE8F05FEB
:100C600001F0A8BDBDE8FF9F000402400000002085
:100C70000000034349434DBCD3CBD9B6C858A3BAEF
:100C800025660A49434DBCD3CBD9B6C859A3BA256A
:100C9000660A49434DBCD3CBD9B6C85AA3BA256618
:100CA0000D0A000049434DC7E3BDC758A3BA2566E6
:100CB0000A49434DC7E3BDC759A3BA25660A49434C
:100CC0004DC7E3BDC75AA3BA25660D0A0000000050
:100CD000044910B50A68024202D00860FFF722FFFB
:100CE00010BD0000140401402DE9F04FDFF80C9214
:100CF000002201250324A9F1040B85B00F2609F178
:100D0000040AABF1040EF0E005FA02F71CEA07034F
:100D10007ED091F804C00CF0030CBCF1010F02D09E
:100D2000BCF1020F26D1D0F808C0CDF800C04FEAC0
:100D3000420C04FA0CF8CDF810C0DDF800C02CEA23
:100D4000080CCDF800C0D1F80C80DDF810C008FA0E
:100D50000CF8DDF800C048EA0C08C0F80880D0F8AC
:100D600004C02CEA070C0F79C7F30017974047EA35
:100D70000C0747600F79FF43BF070ED0C7684FEAE3
:100D8000420804FA08FC27EA0C07D1F808C00CFA5C
:100D900008FC4CEA070CC0F80CC00F7907F00307F9
:100DA000022F15D1D70800EB870702973F6A4FEA59
:100DB000427C4FEADC6806FA08FC27EA0C07D1F807
:100DC00010C00CFA08FC4CEA070C029FC7F820C0C0
:100DD00007684FEA420804FA08FC27EA0C0791F872
:100DE00004C00CF0030C0CFA08FC4CEA070CC0F829
:100DF00000C04F6817F4403F76D0414FD7F800C08D
:100E00004CF0010CC7F800C03F6807F0010700E094
:100E10006AE000973B4F22F0030C67440297BF68DB
:100E20004FEA827C4FEA1C7806FA08FC27EA0C0796
:100E3000DFF8D4C0604502D14FF0000C1DE0DFF8B0
:100E4000CCC0604502D14FF0010C16E0DFF8C0C005
:100E5000604502D14FF0020C0FE0DFF8B8C06045EA
:100E600002D14FF0030C08E0DFF8ACC0604502D1BE
:100E70004FF0040C01E04FF0050C0CFA08FC4CEAB2
:100E8000070C029FC7F808C0D9F80070CC46D1F80B
:100E900004809F435FEAC82800D51F43CCF8007048
:100EA000DAF80070D446D1F804809F435FEA8828BE
:100EB00000D51F43CCF80070DBF80070DC46D1F899
:100EC00004809F435FEA883800D51F43CCF8007048
:100ED000DEF80070F446D1F804809F435FEAC8381A
:100EE00000D51F43CCF80070521C0B689C46D340C1
:100EF0007FF40AAF05B0BDE8F08F000008040140A0
:100F0000203802400000014000000240000402407E
:100F100000080240000C024000100240426921EA31
:100F200002030A4043EA0241816170470AB18161CC
:100F300070470904FBE70000014880687047000023
:100F4000CC01002070B5040025D094F83D000025A8
:100F500020B984F83C50204600F04CFA242084F854
:100F60003D002068016821F00101016020680168EE
:100F700041F4004101602068016821F400410160F2
:100F800000F0ECFB4D4A6168914201D84C4900E009
:100F90004C49884201D2012070BD4B492368B0FB07
:100FA000F1F15E6826F03F060E435E60636893428F
:100FB00006D94FF4967359434FF47A73B1FBF3F1AA
:100FC0002368491C1E6A26F03F0631431962616896
:100FD000914210D84900401EB0FBF1F2521CC2F3FE
:100FE0000B02042A01D2042022E0B0FBF1F0401CE5
:100FF000C0F30B001CE0A268F2B301EBC10303EBEA
:101000000116431EB3FBF6F35B1C43F480431B0540
:1010100049D092B301EBC10202EB0111401EB0FBBB
:10102000F1F0401CC0F30B0040F4804040F400405D
:101030002168CA694CF6FF739A431043C861D4E92A
:10104000071001432068026822F0C00211430160CA
:10105000D4E9030101432068826848F2FF339A43D0
:1010600011438160D4E9050108432168CA6822F070
:10107000FF021043C86001E00EE016E0206801683E
:1010800041F0010101602564202084F83D002563C2
:1010900084F83E50002070BD01EB4106431EB3FBB7
:1010A000F6F35B1CB3E70120C2E701EB4101401EF0
:1010B000B0FBF1F0401CC0F30B00B7E7A0860100C5
:1010C00080841E0000093D0040420F002DE9FF4FC3
:1010D00083B09A46DDE9119793460446DDF84080D7
:1010E000FFF72AFF054694F83D00202870D1192308
:1010F000012271492046009500F078FF0028F5D1C3
:1011000094F83C00012863D0012084F83C0020685A
:101110000168C90703D1016841F00101016020683D
:10112000016821F400610160222084F83D00402024
:1011300084F83E0000262664C4F82480A4F82A908F
:10114000608D20855D48E062CDE9007553465A46C2
:101150002046049900F04CFE00287CD1208DD0B1AF
:10116000012821D00228206824D04169806900909C
:10117000208D032869D801282BD0514902283B46ED
:101180004FF00002009559D08846204600F02EFF0F
:10119000002860D13CE020684169816900910168C4
:1011A00041F40071016077E02068016821F48061FA
:1011B0000160F0E7016821F4806101602068016846
:1011C00041F400610160206841698069009063E03A
:1011D0006FE02A463946204600F0AEFF98BB2068F3
:1011E0000069616A08704EE02068016841F400718E
:1011F000016020680069616A0870606A401C606272
:10120000218D491E2185618D491E6185216838E047
:101210002068016821F48061016020680069616ACA
:101220000870606A401C6062208D401E2085608DC1
:10123000401E60853B46002241460095204600F056
:10124000D5FE00B9D0E706E0FFE72A46394620463A
:1012500000F072FF18B1012007B0BDE8F08F2068E0
:101260000069616A0870606A401C6062218D491ED5
:101270002185618D491E618521684A69D2435207E3
:101280000AD409690170606A401C6062208D401EAA
:101290002085608D401E6085208D00287FF468AF1A
:1012A000202084F83D0084F83E6084F83C600020F3
:1012B000D2E70220D0E70000020010000000FFFF8C
:1012C000040001002DE9FF4F83B09A46DDE9119734
:1012D00093460446DDF84080FFF72EFE054694F85D
:1012E0003D0020287FD11923012240492046009546
:1012F00000F07CFE002876D194F83C00012872D0E2
:10130000012084F83C0020680168C90703D1016806
:1013100041F0010101602068016821F40061016071
:10132000212084F83D00402084F83E0000262664F9
:10133000C4F82480A4F82A90608D20852C48E062AF
:10134000CDE9007553465A462046049900F0CEFD7B
:1013500070B930E02A463946204600F025FF58B1E2
:10136000206C042804D12068016841F400710160F8
:10137000012007B0BDE8F08F606A2168007808613D
:10138000606A401C6062218D491E89B22185628D90
:10139000521E628522685369DB435B070BD469B137
:1013A00000781061606A401C6062208D401E2085BC
:1013B000608D401E6085208D0028CBD12A4639469D
:1013C000204600F0E7FD0028CAD154F83D0B016823
:1013D00041F400710160202004F81E09E677667769
:1013E0000020C6E7FFE70220C3E70000020010006C
:1013F0000000FFFF10B586B0044614216846FEF7D2
:10140000E1FE1E492068884236D11D48016841F03E
:101410000201016000681B4C00F002000590C02032
:1014200000901220019001200290032003900420DC
:10143000049069462046FFF757FC114908310868B7
:1014400040F4001008600868012200F400100590C4
:1014500040212046FFF76AFD0A20FFF751FB0022DA
:1014600040212046FFF762FD0A20FFF749FB0122D9
:1014700040212046FFF75AFD06B010BD0054004041
:101480001C3802400004024002488168426811444E
:1014900081607047CC01002010B50024032000F0CB
:1014A00079F80F2000F008F808B1012401E000F0FD
:1014B00025F8204610BD000070B50E4E05460024EC
:1014C000706898B14FF47A71B1FBF0F00A4909687D
:1014D000B1FBF0F000F0AAFB40B9102D06D20022BB
:1014E0002946501E00F036F8356000E00124204601
:1014F00070BD0000CC010020D80100200D4808B5C7
:10150000016841F000410160016801F00041009173
:10151000011F0A6842F001020A60096801F0010136
:101520000091016841F080510160006800F0805036
:10153000009008BD24380240002809DB00F01F029B
:10154000012191404009800000F1E020C0F8001125
:1015500070470000F0B40E4B1B680C46C3F3022327
:10156000C3F10705042D00D90425191D072901D24F
:10157000002300E0DB1E012606FA05F1491E21408A
:1015800099409E40761E16403143F0BC02F052BD99
:101590000CED00E0064900F0070208684FF6FF0373
:1015A000184040EA0220034A1043086070470000D8
:1015B0000CED00E00000FA052DE9F0470E460500AD
:1015C00079D0DFF88481D8F8000000F00100B04243
:1015D00014D2012E05D1D8F8001041F00401C8F84A
:1015E0000010D8F8001021F001013143C8F80010B4
:1015F000D8F8000000F00100B0425CD12878534CCC
:10160000800705D52068A96820F0F0000843206015
:101610002878C0075CD04D496868083902281AD07C
:1016200003281BD0096801281BD08905002966DA28
:10163000216821F0030101432160FFF77DFC696807
:10164000074641F28830022914D0032920D001290D
:1016500081462AD038E009688903E7E709688901EB
:10166000E4E78907E2E700BFFFF766FCC11B4945D5
:1016700001D926E081462068C0F381000228F3D119
:1016800026E000BFFFF758FCC11B494501D918E00F
:1016900081462068C0F381000328F3D118E000BF21
:1016A000FFF74AFCC11B49450BD82068C0F38100F5
:1016B0000128F5D10CE022E0FFF73EFCC11B4945B3
:1016C00002D90320BDE8F087206810F00C0FF3D199
:1016D000D8F80010404601F00101B14211D9012EA5
:1016E00003D1016841F004010160016821F00101AA
:1016F00031430160006800F00100B04201D00120D8
:10170000E0E72878400705D52068E96820F4E06024
:10171000084320602878000706D52068296920F44E
:10172000605040EAC100206000F038F82168084AA3
:10173000C1F30311515CC8400649086006480068BF
:10174000BDE8F047FFF7B8BE003C02400838024051
:10175000C94E0008D8010020CC01002004480549EA
:1017600000680968044AC1F30221515CC84070470F
:10177000D801002008380240D94E00080448054925
:1017800000680968044AC1F3C221515CC84070472F
:10179000D801002008380240D94E000870B5154D18
:1017A0002968154801F00C02042A0CD0134C082AB1
:1017B0000AD00C2A0AD0281F0068C0F342314FF427
:1017C0000040491C884070BD204670BD0C4AC1F3E2
:1017D0008343D35CC1F381522968521CC90302D5EB
:1017E000A3FB040101E0A3FB00010023FEF7A0FC22
:1017F00070BD0000083802400024F40000366E017D
:10180000C04E00082DE9F84F04007DD0FC48016867
:10181000006801F00C0700F480362078F94DC0070D
:1018200041D0082F12D00C2F02D1B6F5803F0DD039
:101830006068012811D008B1052818D0286820F464
:1018400080302860286820F4802009E02868800320
:1018500029D560680028D8D025E0286840F4803079
:101860002860606890B1FFF767FB80460AE028684F
:1018700040F480202860F0E7FFF75EFBA0EB080053
:1018800064287BD828688003F6D50CE0FFF754FB6A
:10189000804605E0FFF750FBA0EB08006428F0D875
:1018A00028688003F6D42078DFF85CB3DFF85C8327
:1018B00080074FF001094FF0000A35D5042F0AD0F8
:1018C0000C2F00D13EB1E068F8B1C8F80090FFF7E6
:1018D00033FB06460BE0286880070BD5E06801283B
:1018E00012D107E0FFF728FB801B0228C9D828681F
:1018F0008007F7D5DBF80010226921F4F85141EA9E
:101900000221CBF800100FE077E1C8F800A0FFF744
:1019100013FB064605E000BFFFF70EFB801B022805
:10192000AFD828688007F7D42078C00674D53FB1B7
:10193000A069E0B3C8F82090FFF7FEFA06464AE037
:101940002868800502D5A069002884D0206ADBF8C9
:1019500000105E4601F46041884210D902F060F93F
:101960000028BDD13068216A20F46040084330600F
:10197000217F306861F31F6030600FE096E03168CE
:1019800021F4604101433160217F306861F31F60C1
:101990003060206A02F044F90028A1D1216A4FF496
:1019A000004009EB513188409549096800E025E085
:1019B000974AC1F30311515CC840964908609648A4
:1019C0000068FFF779FD00286FD125E0FFF7B4FA32
:1019D000801B02286AD828688005F7D5DBF800103C
:1019E000226A21F460411143CBF80010227FDBF81A
:1019F000001062F31F61CBF800100DE0C8F820A0C2
:101A0000FFF79AFA064604E0FFF796FA801B0228D1
:101A10004CD828688005F7D42078804E000722D55E
:101A20007F48616981B1C0F80090FFF785FA83466D
:101A300006E000BFFFF780FAA0EB0B00022835D8C4
:101A400030688007F6D50EE0C0F800A0FFF774FA02
:101A5000834605E0FFF770FAA0EB0B00022825D8BB
:101A600030688007F6D4207840076DD56B484FF07A
:101A7000000B10380068C0000BD4684810380168AB
:101A800041F08051016000684FF0010B00F0805080
:101A9000009064480168C90514D4016841F480715C
:101AA0000160FFF749FA009008E08DE079E000BF9F
:101AB000FFF742FA0099401A642872D85948006822
:101AC000C005F5D5A06801280AD008B1052811D0B5
:101AD000306820F480703060306820F4806002E06C
:101AE000306840F480703060A068A8B1FFF724FA35
:101AF00000900DE0306840F480603060F0E700BF97
:101B0000FFF71AFA0099411A41F2883081425AD8F7
:101B100030688005F4D50EE0FFF70EFA009007E07C
:101B2000FFF70AFA0099411A41F2883081424AD8F7
:101B300030688005F4D4BBF1000F05D03748103869
:101B4000016821F080510160606A58B30C2F41D0C8
:101B50000228504605D0C8F86000FFF7EDF90446AA
:101B600034E04746C8F86000FFF7E6F9064604E0AF
:101B7000FFF7E2F9801B022825D828688001F7D4F6
:101B8000D4E90A1001431E48226B036823F47D0345
:101B90001A4311430160C7F86090FFF7CDF904467E
:101BA00007E010E040E000BFFFF7C6F9001B022885
:101BB00009D828688001F7D536E000BFFFF7BCF9E7
:101BC000001B022802D90320BDE8F88F2868800195
:101BD000F4D429E00128F7D009480068A26A00F48B
:101BE0008031914209D1E26A00F47011914204D12E
:101BF000216B00F44000884216D00120E4E7000089
:101C000008380240003802400438024000004742D1
:101C1000C94E0008D8010020CC0100203438024011
:101C200080064742007000400020CDE710B5401EFE
:101C3000B0F1807F01D3012010BD4FF0E02460613E
:101C40000F21601702F0F6F90020A0610720206143
:101C5000002010BD70B5040004D094F841000025A8
:101C600010B106E0012070BD84F84050204600F01D
:101C700023F8242084F841002068C16821F4005131
:101C8000C160204602F0D8F82068016921F4904133
:101C900001612068416921F02A0141612068C16821
:101CA00041F40051C1606564202084F8410084F84B
:101CB00042006563002070BD10B586B00446142153
:101CC0006846FEF77FFA14492068884221D11348FC
:101CD000016841F480410160006800F48040059093
:101CE0000E48001F016841F001010160006869466B
:101CF00000F0010005904FF4C060009002200190B8
:101D00000020029003200390072004900448FEF76F
:101D1000EBFF06B010BD0000003801402038024043
:101D2000000002402DE9F843044690F841001F46A8
:101D300016460D46202802D00220BDE8F8837DB16A
:101D400076B100206064212084F84100FFF7F4F8A8
:101D5000A6848046E684A068B0F5805F02D003E0E8
:101D60000120EAE7206910B12E4600250EE000268A
:101D70000CE08021204602F0EDF8A0B9AEB116F8D3
:101D8000010B21684860E08C401EE084E08C4346F3
:101D90004FF0000200970028EBD14FF040012046A1
:101DA00002F0D8F830B10320C7E735F8020BC0F3D2
:101DB0000800E6E7202084F841000020BDE7FEE7A8
:101DC00001684A69D24352050FD46FF480624A61B8
:101DD000002140F8301F202242738173026942F0D3
:101DE0000402026101730120704700207047000067
:101DF0002DE9F84F0446006889460B9D0168984616
:101E0000174641F4806101602068016841F48071E7
:101E1000016000954FF0011B0022594620460A9BA5
:101E200000F0E4F84FF4007A40B120680068C00583
:101E300001D5C4F840A00320BDE8F88F216809F05F
:101E4000FE0008612B46284920460A9A00F016F940
:101E5000F0BB20684169806900902A4620460A99B3
:101E600000F0A2F940B1206C04283AD12068016842
:101E700041F40071016034E0FEB2B8F1010F09D005
:101E80002168380A08612A4620460A9900F08CF930
:101E90000028E8D1206806612A4620460A9900F009
:101EA00083F90028DFD12068016841F48071016066
:101EB00000950022594620460A9B00F097F800281A
:101EC000B3D1216809F0FF0040F00100086100E093
:101ED00007E02B46044920460A9A00F0CFF8002874
:101EE000AAD00120A8E70000020001002DE9F84374
:101EF000044600680D46DDE90897016898461646D5
:101F000041F4807101604B4600224FF001112046E0
:101F1000009700F06BF848B120680068C00502D552
:101F20004FF4007020640320BDE8F883216805F0B9
:101F3000FE0008613B464A461549204600F09EF8DF
:101F400088B920684169806900903A464946204630
:101F500000F02AF948B1206C042804D120680168F7
:101F600041F4007101600120DEE7F5B2B8F1010F24
:101F700009D02168300A08613A464946204600F0F7
:101F800013F90028E7D1206805610020CCE70000A4
:101F90000200010070B516460D4604461EE02046BC
:101FA000FFF70EFF08B1012070BD681C16D0FEF7C8
:101FB000C3FF801BA84200D885B920684069C04390
:101FC00040070BD5002044F8300F20216173A07327
:101FD000216941F0200121612073E4E72068406914
:101FE000C0434007DBD4002070BD00002DE9F0475E
:101FF000984617460D460446C1F30746DDF8209083
:102000002AE000BFB8F1FF3F26D0FEF795FFA0EB16
:102010000901414502D8B8F1000F1DD12068012EF9
:1020200016D0806925EA00000004000C12D00020C0
:10203000B84211D1002044F8300F20216173A07301
:10204000216941F02001216120730120BDE8F08762
:102050004069E7E70120EBE72068012E0AD080699C
:1020600025EA00000004000C06D00020B842C9D0C8
:102070000020EBE74069F3E70120F7E72DE9F0479F
:10208000984616460D4604464FF000094FF0200AC8
:10209000C1F3074723E020684069C043400515D4D9
:1020A0002068016841F40071016021686FF480606C
:1020B0004861C4F8309084F83DA084F83E90216CCB
:1020C00041F00401216484F83C9021E0701C06D0AA
:1020D000FEF732FFA0EB0800B04203D816B1012F83
:1020E0001FD021E02068012F15D0806925EA00006B
:1020F0000004000C18D000BF44F8309F84F80DA0F5
:1021000084F80E90216941F02001216184F80C903F
:102110000120BDE8F087406925EA00000004000CBA
:10212000EAD12068406901E02068806925EA000062
:102130000004000CAFD1ECE72DE9F04100259046FA
:102140000E460446202728E04069C043C0060CD450
:1021500054F8301B6FF01000486144F8105967774D
:10216000A577206A2062257714E0FEF7E5FEA0EB54
:102170000800B04200D886B920684069C0434006D4
:102180000BD544F8305F6773A573206940F02000D9
:10219000206125730120BDE8F08120684169C943B1
:1021A0004906D1D40020F6E770B516460D46044620
:1021B0001EE02046FFF704FE08B1012070BD681C38
:1021C00016D0FEF7B9FE801BA84200D885B920685A
:1021D0004069C04300060BD5002044F8300F202191
:1021E0006173A073216941F0200121612073E4E74C
:1021F00020684069C0430006DBD4002070BD0000A9
:102200002DE9F04F91B04FF0000B2422F54906A8BC
:10221000FDF7BFFFFEF790FEF34C4FF47A7100FB21
:1022200001F7A06A38B1381AFEF795F9EF49FEF7C1
:102230005EF8064600E0002616F0FF4FA7627DD04C
:1022400001F02EFDEA4DE86E28668246286F68662A
:10225000D5F874808146C5F868806878002877D002
:1022600085F802B0E06AD84600B9E762DFF88093EB
:10227000696A09F1D0094E46D9F80000FDF7ADFFB3
:102280003060A96A7068FDF7A8FF7060E96AB068FD
:10229000FDF7A3FFB060B5F90A00FEF753F90C365D
:1022A0003168FDF79AFF3060B5F90C00FEF74AF986
:1022B0007168FDF792FF7060B5F90E00FEF742F904
:1022C000B168FDF78AFFB0602088CA4A401C80B21E
:1022D0002080E16A11448F4237D90027FEF73BF98D
:1022E0008246514656F82700FEF701F805EB8701B4
:1022F0007F1CFFB24865032FF3D34046A4F800804B
:1023000000214A4642F8210046F82100491CC9B282
:102310000329F7D34FF07E51C4E90110E06020613A
:102320006061A061E061206220636063A063E0639C
:1023300020646064A064E064206501E005E007E0DB
:1023400001216065A970E062687011B0BDE8F08F8E
:10235000A74DA96CA86FFDF792FF0746E96CE86FDF
:10236000FDF78DFF0F90296DD5F88000FDF787FFF1
:10237000636A0146002B7DD09FA001F029FEDFF8A3
:102380008082D8F80010DFF87C92D9F80000FDF7C1
:1023900024FFDFF874A2DAF80010FDF770FFDFF811
:1023A0006CB2DBF80010FDF76AFF994D06902968C2
:1023B000984F3868FDF769FF974C00902168974E59
:1023C0003068FDF762FF0099FDF707FF0121FDF777
:1023D000CCFF079021683868FDF757FF0090296807
:1023E0003068FDF752FF0099FDF749FF0121FDF725
:1023F000BCFF089029683868FDF747FF0090216806
:102400003068FDF742FF0099FDF739FF0121FDF724
:10241000ACFF0990D8F80010D9F80000FDF72FFFA5
:10242000DAF80010FDF7D9FEDBF80010FDF727FF02
:102430000A9031683868FDF728FF00902968206805
:10244000FDF723FF0099FDF7C8FE0121FDF78DFF81
:102450000B9021683868FDF718FF009029683068F4
:10246000FDF713FF0099FDF7B8FE0121FDF77DFF91
:102470000C9000E0A3E031683868FDF706FF00909B
:1024800029682068FDF701FF0099FDF7F8FE01219A
:10249000FDF76BFF0D90D8F80010D9F80000FDF79C
:1024A000EEFEDAF80010FDF7EAFEDBF80010FDF7AB
:1024B00094FE01460E900B9802F0C8FA80460898E8
:1024C00002F032FA80F00049DDE9061002F0BEFAAF
:1024D00001464046DFF8188181F00041C8F8C40089
:1024E000C8E9329121682068FDF7CFFE3168814646
:1024F0003068FDF7CAFE4FF07C5A5146FDF7C2FE28
:102500004946FDF7BCFE296881462068FDF7BDFEFF
:10251000316883463868FDF7B8FE5946FDF75DFE21
:10252000494602F093FADFF8F8B05946FDF7ADFEE0
:102530003C49FDF7DCFEC8F8B80021683868FDF7B3
:10254000A4FE296881463068FDF79FFE4946FDF7E5
:1025500096FE4FF04041FDF798FE02F0E5F959462E
:10256000FDF793FE2F49FDF7C2FEC8F8BC002968AD
:102570002868FDF78AFE216881462068FDF785FE00
:102580005146FDF77FFE4946FDF779FE29688146F1
:102590003868FDF77AFE216805463068FDF775FE5C
:1025A0002946FDF71AFE494602F050FA5946FDF752
:1025B0006CFE1C49FDF79BFEC8F8C000C5E6CDE9DE
:1025C00004B68AF00044CDE9004881F0004289F069
:1025D0000043CDF808B03946CDF80CB00F9800F0A4
:1025E000F9FBCCE69C4E000804000020002474494E
:1025F000E401002040420F004E554C4C0A00000000
:1026000090000020800000209C000020A4000020FA
:102610007C00002070000020780000207400002062
:1026200000003443DB0F494010B51A211F2000F091
:10263000F1F93220FEF764FA4A21212000F0EAF98C
:102640006921202000F0E6F9212000F0B3F8C0F362
:10265000411421460BA001F0BBFC0E484CB1012CEB
:102660000AD0022C0BD0032C02D14FF08D41016017
:1026700010BD4FF08A41FAE74FF08B41F7E74FF07A
:102680008C41F4E769636D5F72616E67653D256437
:102690000A000000000000201FB500218DF80C107A
:1026A0004FF47A73012203A98DE80E001346024607
:1026B000D0210648FEF70AFD010002D004A001F077
:1026C00087FC9DF80C0004B010BD0000CC02002077
:1026D0004932432052656365697665204661696CBD
:1026E0006564217374617475733D25640A0000008C
:1026F00003B583B04FF47A73012204A98DE80E006C
:1027000013460246D0210548FEF7DCFD010002D049
:1027100003A001F05DFC05B000BD0000CC0200206C
:10272000493243205472616E736D69742046616949
:102730006C6564217374617475733D25640A0000CF
:10274000194810B5016886B041F0040101600168C4
:1027500001F004010591016841F002010160006887
:10276000022400F0020005904FF400500090012078
:10277000CDE90204019069460C48FEF7B5FA08203D
:1027800000904FF48810CDE9010469460848FEF72F
:10279000ABFA012200210920FEF7DCFE0920FEF73A
:1027A000CBFE06B010BD00001C38024000080240FD
:1027B00000040240FFF770BF2DE9F04F91B00446CE
:1027C000FFF732FF0120FEF79BF90B20FFF7F2FF26
:1027D00005460C20FFF7EEFF40EA052000B2089006
:1027E000FDF7B0FE644D2968FDF781FD06900D20D0
:1027F000FFF7E0FF06460E20FFF7DCFF40EA062069
:1028000000B28246FDF79EFE2968FDF770FD079035
:102810000F20FFF7CFFF06461020FFF7CBFF40EA5F
:10282000062000B20A90FDF78DFE2968FDF75FFDD6
:1028300080461120FFF7BEFF05461220FFF7BAFFC2
:1028400040EA052000B28346FDF77CFE4B49FDF7C8
:102850004EFD07465846FDF783FE0022484BFDF724
:1028600002FE4FF02042474BFDF78BFDFDF7B5FE12
:1028700006461320FFF79EFF05461420FFF79AFF38
:1028800040EA052000B20C90FDF76AFE00223C4BA6
:10289000FDF7E9FD4FF020423A4BFDF772FDFDF7E1
:1028A0009CFE0F901520FFF785FF05461620FFF7C9
:1028B00081FF40EA052000B28146FDF751FE00226B
:1028C0002F4BFDF7D0FD4FF020422E4BFDF759FD69
:1028D000FDF783FE10903046FDF76CFE05460E4670
:1028E00038460591FDF766FECDE900560B460246D7
:1028F000594625A001F06CFB4046FDF75BFE0746FC
:1029000088460798FDF756FE064601910698FDF7A2
:1029100051FECDE9027802460B4625A0009601F053
:1029200057FB1098FDF746FE06460F460F98FDF739
:1029300041FE8446059BCDE900C12A4629A0CDE988
:10294000026701F045FB3A20FFF734FF3B20FFF719
:1029500031FF3C20FFF72EFF08982080A4F802A04A
:102960000A98A080A4F806B00C982081A4F80A90D8
:1029700011B0BDE8F08F000000000020000003430C
:102980000060604046DF913F6779726F5F783D2558
:10299000642C6779726F5F785F4445473D25660A0E
:1029A0002C6779726F5F785F5241443D25660A005B
:1029B00049434DBCD3CBD9B6C858A3BA25660A49FA
:1029C000434DBCD3CBD9B6C859A3BA253036660A15
:1029D00049434DBCD3CBD9B6C85AA3BA25660D0A14
:1029E0000000000049434DBDC7CBD9B6C858A3BAB3
:1029F00025660A49434DBDC7CBD9B6C859A3BA25E8
:102A0000660A49434DBDC7CBD9B6C85AA3BA256695
:102A10000D0A0000FFF76CBE2DE9F0411C4C064684
:102A20002068B0F5000F02DA3046BDE8F081A168F9
:102A3000E069FDF72AFC05466168A069FDF725FC01
:102A40003146FDF71FFC2946FDF719FC054601F04C
:102A5000EBFA18B9284601F0DEFA00B13546616993
:102A6000E069FDF712FC8046A06921690746FDF781
:102A70000CFC06462846E168FDF707FC3146FDF7E9
:102A8000ACFB4146FDF7A9FBC4E90657CDE70000C2
:102A9000A80000202DE9F0411C4C0646206AB0F544
:102AA000000F02DA3046BDE8F081A16AE06BFDF765
:102AB000ECFB0546616AA06BFDF7E7FB3146FDF7CD
:102AC000E1FB2946FDF7DBFB054601F0ADFA18B93D
:102AD000284601F0A0FA00B13546616BE06BFDF7C6
:102AE000D4FB8046A06B216B0746FDF7CEFB064664
:102AF0002846E16AFDF7C9FB3146FDF76EFB41460A
:102B0000FDF76BFBC4E90E57CDE70000A8000020DD
:102B10002DE9F0411C4C0646206CB0F5000F02DA9E
:102B20003046BDE8F081A16CE06DFDF7AEFB0546D7
:102B3000616CA06DFDF7A9FB3146FDF7A3FB2946AB
:102B4000FDF79DFB054601F06FFA18B9284601F024
:102B500062FA00B13546616DE06DFDF796FB804687
:102B6000A06D216D0746FDF790FB06462846E16CF7
:102B7000FDF78BFB3146FDF730FB4146FDF72DFBA2
:102B8000C4E91657CDE70000A80000202DE9F04168
:102B90001C4C0646206EB0F5000F02DA3046BDE848
:102BA000F081A16EE06FFDF770FB0546616EA06FCE
:102BB000FDF76BFB3146FDF765FB2946FDF75FFB33
:102BC000054601F031FA18B9284601F024FA00B19F
:102BD0003546616FE06FFDF758FB8046A06F216FAF
:102BE0000746FDF752FB06462846E16EFDF74DFB12
:102BF0003146FDF7F2FA4146FDF7EFFAC4E91E57F8
:102C0000CDE70000A80000202DE9F0411C4C06464D
:102C10002068B0F5000F02DA3046BDE8F081A16807
:102C2000E069FDF732FB05466168A069FDF72DFB01
:102C30003146FDF727FB2946FDF721FB054601F04C
:102C4000F3F918B9284601F0E6F900B13546616993
:102C5000E069FDF71AFB8046A06921690746FDF788
:102C600014FB06462846E168FDF70FFB3146FDF7E9
:102C7000B4FA4146FDF7B1FAC4E90657CDE70000C2
:102C8000280100202DE9F0411C4C0646206AB0F5D1
:102C9000000F02DA3046BDE8F081A16AE06BFDF773
:102CA000F4FA0546616AA06BFDF7EFFA3146FDF7CD
:102CB000E9FA2946FDF7E3FA054601F0B5F918B936
:102CC000284601F0A8F900B13546616BE06BFDF7CD
:102CD000DCFA8046A06B216B0746FDF7D6FA064664
:102CE0002846E16AFDF7D1FA3146FDF776FA41460A
:102CF000FDF773FAC4E90E57CDE700002801002064
:102D000000B587B014216846FDF75CFA11480168E8
:102D100041F004010160016801F0040105910168BE
:102D200041F001010160016801F0010105910168B4
:102D300041F0020101600068694600F00200059060
:102D4000042000900120019002900348FDF7CCFF81
:102D500007B000BD1C380240000402400D4810B509
:102D60000B4901600C49416000214FF480428160B1
:102D7000C0E9031241618161C1610162FEF7E2F8BD
:102D8000002803D0BDE81040FDF7B7BE10BD00001D
:102D900000540040CC020020801A06000C4810B5F8
:102DA0000A4901604FF416514160002181600C22F4
:102DB000C160C0E904128161C161FEF74BFF0028C8
:102DC00003D0BDE81040FDF798BE10BD00380140AB
:102DD000200300202DE9FF4FA1B08046DDE92E76CB
:102DE00030981D4610F0FF4F07D1319810F0FF4F7B
:102DF00003D1329810F0FF4F6AD0FE4C239920691E
:102E0000FDF743FA82462299E068FDF73EFA8146D3
:102E1000A068414680F00040FDF737FA4946FDF7CB
:102E20002EFA5146FDF72BFA4FF0FF31FDF79DFAD0
:102E3000834622992069FDF728FA82462399E068A3
:102E4000FDF723FA616881464046FDF71EFA4946C0
:102E5000FDF7C3F95146FDF712FA4FF0FF31FDF7C8
:102E600084FA216982464046FDF70FFA814623998C
:102E7000A068FDF70AFA029022996068FDF705FA4A
:102E80000299FDF7FCF94946FDF7A7F94FF0FF312C
:102E9000FDF76BFAE16881464046FDF7F6F90290CE
:102EA0002299A068FDF7F1F9804623996068FDF743
:102EB000ECF94146FDF791F90299FDF7E0F94FF081
:102EC000FF31FDF752FA804615F0FF4F12D10BE0AB
:102ED00033980097CDE90160DDE92212404600F009
:102EE00025FC25B0BDE8F08F17F0FF4F02D116F09A
:102EF000FF4F7DD031460846FDF7C7F939460090AF
:102F00000846FDF7C2F9294602900846FDF7BDF9CB
:102F10000299FDF762F90099FDF75FF901F0F4FEFF
:102F2000014600902846FDF7B0F9249038460099F4
:102F3000FDF7ABF92E9030460099FDF7A6F93299CE
:102F40002F900846FDF7A1F9319906460846FDF78E
:102F50009CF9309905460846FDF797F92946FDF793
:102F60003CF93146FDF739F901F0CEFE0546014640
:102F70003098FDF78AF9309029463198FDF785F9A8
:102F8000319029463298FDF780F93290012160682E
:102F9000FDF7EBF93099FDF778F91D900121606894
:102FA000FDF7E3F93199FDF770F91C900121606894
:102FB000FDF7DBF93299FDF768F907460121A068B2
:102FC000FDF7D3F93099FDF760F91F900121606892
:102FD000FDF7CBF90E900121A068FDF7C6F903902B
:102FE0000121E068FDF7C1F90D900121206900E0A1
:102FF0000CE3FDF7BAF90A9001216068FDF7B5F915
:10300000E168FDF742F914900121E068FDF7ADF9A0
:103010002169FDF73AF9169061686068FDF735F9A6
:103020001E90A1686068FDF730F90990E16860685A
:10303000FDF72BF9129021696068FDF726F90C90D5
:10304000A168A068FDF721F91B90E168A068FDF771
:103050001CF917902169A068FDF717F90290E16843
:10306000E068FDF712F907902169E068FDF70DF9B6
:10307000189021692069FDF708F9014606903098FB
:10308000FDF703F9199007993098FDF7FEF80090C5
:1030900032990398FDF7F9F82169FDF7F6F806462D
:1030A00031990398FDF7F1F8E168FDF7EEF8054670
:1030B0001B993098FDF7E9F80F90E1683846FDF765
:1030C000E4F8019021691C98FDF7DFF80B901E9938
:1030D0003098FDF7DAF80B99FDF7D1F80199FDF773
:1030E0007CF80F99FDF779F82946FDF776F8314617
:1030F000FDF773F80099FDF7C2F81999FDF7BFF8CD
:10310000064606993198FDF7C0F8019032990D985E
:10311000FDF7BBF82169FDF7B8F805460799319826
:10312000FDF7B3F815901B993198FDF7AEF80F90A5
:10313000E1681F98FDF7A9F80B90A1683846FDF7E4
:10314000A4F800901E993198FDF79FF82169074671
:103150001D98FDF79AF83946FDF73FF80099FDF7FD
:103160008EF80B99FDF739F80F99FDF788F8159946
:10317000FDF733F82946FDF730F80199FDF77FF8A0
:103180000146FDF782F8054631460846FDF77DF811
:103190002946FDF722F8FDF70DFA01F043FEFDF791
:1031A0001CFA019006993298FDF76FF8059007997F
:1031B0003298FDF76AF8009031990D98FDF765F89F
:1031C0002169FDF762F805461B993298FDF75DF815
:1031D0001A9021691F98FDF758F80F901E993298A0
:1031E000FDF753F8E16807461D98FDF74EF80646CF
:1031F000A16801E05C0000201C98FDF746F831460C
:10320000FDF73DF83946FCF7E8FF0F99FCF7E5FFBD
:103210001A99FDF734F82946FCF7DFFF0099FDF70E
:103220002EF80599FCF7D9FF009001210198FDF7D0
:103230009CF81A9001210098FDF797F81C904FF028
:103240007C501B99FDF71BF80799FDF718F80099BA
:10325000FDF71BF8054602991298FCF7BEFF01998D
:10326000FDF713F82946FCF7B8FF3299FDF707F888
:103270000B901590E16805460198FDF706F8294680
:10328000FDF703F8074618990998FCF7A6FF00997F
:10329000FCF7FBFF05460C991798FCF7F0FF019926
:1032A000FCF7F3FF2946FCF798FF3199FCF7E7FF9D
:1032B0000C901790216905460198FCF7E6FFA1687C
:1032C00006460098FCF7E1FF3146FCF7D8FF294697
:1032D000FCF7DBFF064612990298FCF7D0FF009935
:1032E000FCF7D3FF05464FF07C500799FCF7C7FF6A
:1032F0000699FCF7C4FF0199FCF7C7FF2946FCF7C4
:103300006CFF3099FCF7BBFF12901890E1680546FE
:103310000098FCF7BAFF2946FCF7B7FF05460121E4
:103320000298FDF722F81499FCF7A9FF2499FCF7FD
:10333000A6FF089002900D99FCF7A7FF14900121B9
:103340000998FDF712F81699FCF747FF2E99FCF73C
:1033500096FF069009900399FCF797FF1499FCF7E4
:103360008EFF2946FCF78BFF3146FCF736FF3946C6
:10337000FCF733FF0590159DA1681C98FCF785FFAD
:10338000216906460198FCF780FF3146FCF777FF7C
:103390002946FCF77AFF0F90179D61680098FCF7AB
:1033A00074FFE16806460198FCF76FFF3146FCF7B1
:1033B00014FF2946FCF769FF1590189D21690098B4
:1033C000FCF763FF2946FCF760FF064601210798DA
:1033D000FCF7CBFF054601211B98FCF7C6FF4FF019
:1033E0007E51FCF74FFF2946FCF749FF2F99FCF768
:1033F00046FF054617900221A068FCF7B6FF294654
:10340000FCF743FF07460E990998FCF73EFF054677
:103410000A990298FCF739FF2946FCF7DEFE394687
:10342000FCF72DFF3146FCF7D8FE1599FCF7D5FEC9
:103430000F99FCF7D2FE02900B9DE1681C98FCF7F7
:1034400024FF616806460198FCF71FFF3146FCF730
:1034500016FF2946FCF719FF0C9D216907460098C5
:10346000FCF713FFA16806460198FCF70EFF3146F2
:10347000FCF7B3FE2946FCF708FF129D616806467B
:103480000098FCF702FF15901A98E16880F0004060
:10349000FCF7FBFE1599FCF7F2FE2946FCF7F5FE5A
:1034A00009900221179DE068FCF75FFF2946FCF7B1
:1034B000ECFE14900E990898FCF7E7FE05460A9971
:1034C0000698FCF7E2FE2946FCF7D9FE1499FCF7B2
:1034D000D6FE0999FCF781FE3146FCF77EFE39469F
:1034E000FCF77BFE0B9DA16807460198FCF7CDFE1B
:1034F0002946FCF7CAFE09900C9D61680198FCF70B
:10350000C4FEE16806460098FCF7BFFE3146FCF7B2
:10351000B6FE2946FCF7B9FE129D216906461A98A7
:10352000FCF7B3FE0B90A1680098FCF7AEFE0B9978
:10353000FCF7A5FE2946FCF7A8FE05460D9906985E
:10354000FCF7A3FE069003990898FCF79EFE0699E7
:10355000FCF743FE2946FCF740FE3146FCF73DFEF2
:103560000999FCF73AFE06460146FCF78EFE054631
:1035700039460846FCF789FE029908900846FCF790
:1035800084FE059903900846FCF77FFE0399FCF73B
:1035900024FE0899FCF721FE2946FCF71EFE01F0E7
:1035A000B3FB054601460598FCF76FFE05902946DA
:1035B0000298FCF76AFE029029463846FCF765FE41
:1035C000074629463046FCF760FE05460599206807
:1035D000FCF75BFE5946FCF755FE834602992068CE
:1035E000FCF753FE5146FCF74DFE824639462068F3
:1035F000FCF74BFE4946FCF745FE8146294620680C
:10360000FCF743FE4146FCF73DFE804658463399A1
:10361000FCF73BFE6168FCF7E0FD606050463399C3
:10362000FCF733FEA168FCF7D8FDA060484633994B
:10363000FCF72BFEE168FCF7D0FDE06040463399D3
:10364000FCF723FE2169FCF7C8FD20612169206990
:10365000FCF71BFEE1680746E068FCF716FEA16870
:103660000646A068FCF711FE616805466068FCF735
:103670000CFE2946FCF7B1FD3146FCF7AEFD39469C
:10368000FCF7ABFD01F040FB054601466068FCF726
:10369000FCFD60602946A068FCF7F7FDA0602946A4
:1036A000E068FCF7F2FDE06029462069FCF7EDFDDB
:1036B000206160686061A068A061E068E0612069E5
:1036C000206261686068FCF7E0FD6062A168606884
:1036D000FCF7DBFDA062E1686068FCF7D6FDE06204
:1036E00021696068FCF7D1FD2063A168A068FCF740
:1036F000CCFD6063E168A068FCF7C7FDA0632169A9
:10370000A068FCF7C2FDE063E168E068FCF7BDFD7E
:1037100020642169E068FCF7B8FD606421692069D4
:10372000FCF7B3FDA06425B0BDE8F08F2DE9FF4F95
:10373000FF4C97B083469A4619992069FCF7A5FD7E
:1037400006461899E068FCF7A0FD0546A0685946B2
:1037500080F00040FCF799FD2946FCF790FD3146CA
:10376000FCF78DFD4FF0FF373946FCF7FEFD804634
:1037700018992069FCF789FD06461999E068FCF75D
:1037800084FD616805465846FCF77FFD2946FCF735
:1037900024FD3146FCF773FD3946FCF7E6FD21694F
:1037A00006465846FCF771FD81461999A068FCF75A
:1037B0006CFD054618996068FCF767FD2946FCF723
:1037C0005EFD4946FCF709FD3946FCF7CEFDE16890
:1037D00005465846FCF759FD83461899A068FCF742
:1037E00054FD814619996068FCF74FFD4946FCF786
:1037F000F4FC5946FCF743FD3946FCF7B6FD074695
:103800001AF0FF4F07D1249810F0FF4F03D12598ED
:1038100010F0FF4F7ED025990846FCF736FD24991D
:1038200083460846FCF731FD814651460846FCF7C1
:103830002CFD4946FCF7D1FC5946FCF7CEFC01F0C3
:1038400063FA814601465046FCF71FFD1A9049462F
:103850002498FCF71AFD249049462598FCF715FD9D
:10386000834601216068FCF780FD14900121A06867
:10387000FCF77BFD12900121E068FCF776FD1390C8
:1038800001212069FCF771FD159002216068FCF7A9
:103890006CFD02900221A068FCF767FD82460221C0
:1038A000E068FCF762FD05900321A068FCF75DFD70
:1038B00008900321E068FCF758FD07906168606894
:1038C000FCF7E3FC1090A168A068FCF7DEFC019017
:1038D000E168E068FCF7D9FC009021692069FCF7F9
:1038E000D4FC069024991298FCF7CFFC0E90DDE9E9
:1038F0000110FCF7CAFC0D901A991398FCF7C5FC4F
:10390000814600990298FCF7C0FC4946FCF765FC2B
:103910000D9900E0EEE0FCF760FC0E99FCF7AFFCBF
:10392000039059465046FCF7B0FC0E900099089859
:10393000FCF7ABFC0D9001990898FCF7A6FC0F90E2
:1039400024991498FCF7A1FC089002211098FCF728
:103950000CFD1690A168FCF798FC81461A99159801
:10396000FCF793FC119050460699FCF78EFC1199D8
:10397000FCF785FC4946FCF730FC0899FCF77FFC16
:103980005146FCF77CFC0F99FCF727FC0D99FCF7DE
:1039900024FC0E99FCF721FC824659460598FCF759
:1039A00074FC0D9000990798FCF76FFC0890019942
:1039B0000798FCF76AFC0E9024991598FCF765FCB3
:1039C0000790DDE90501FCF760FC83461A9914981D
:1039D000FCF75BFC81461698E168FCF756FC49460B
:1039E000FCF7FBFB5946FCF7F8FB0799FCF747FC93
:1039F0000599FCF744FC0E99FCF7EFFB0899FCF7DE
:103A0000ECFB0D99FCF7E9FB834624991398FCF72E
:103A10003CFC059002210098FCF7A7FC2169FCF70B
:103A200034FC81461A991298FCF72FFC069002216B
:103A30000198FCF79AFC2169FCF727FC0699FCF732
:103A40001EFC4946FCF7C9FB0599FCF718FC8146AA
:103A50000146FCF71AFC594605900846FCF715FC90
:103A6000514600900846FCF710FC03990790084661
:103A7000FCF70BFC0799FCF7B0FB0099FCF7ADFBDA
:103A80000599FCF7AAFB01F03FF901460090039865
:103A9000FCF7FBFB039050460099FCF7F6FB049003
:103AA00058460099FCF7F1FB824648460099FCF71E
:103AB000ECFB814603992068FCF7E7FB4146FCF7E5
:103AC000E1FB804604992068FCF7DFFB3146FCF7F8
:103AD000D9FB064651462068FCF7D7FB2946FCF780
:103AE000D1FB054649462068FCF7CFFB3946FCF779
:103AF000C9FB074640462699FCF7C7FB6168FCF7FF
:103B00006CFB606030462699FCF7BFFBA168FCF7B0
:103B100064FBA06028462699FCF7B7FBE168FCF738
:103B20005CFBE06038462699FCF7AFFB216901E0B9
:103B30005C000020FCF751FB206121692069FCF743
:103B4000A4FBE1680746E068FCF79FFBA168064616
:103B5000A068FCF79AFB616805466068FCF795FB76
:103B60002946FCF73AFB3146FCF737FB3946FCF7B0
:103B700034FB01F0C9F8054601466068FCF785FB97
:103B800060602946A068FCF780FBA0602946E068D9
:103B9000FCF77BFBE06029462069FCF776FB20619F
:103BA00060686061A068A061E068E06120692062EF
:103BB00061686068FCF769FB6062A1686068FCF797
:103BC00064FBA062E1686068FCF75FFBE06221696A
:103BD0006068FCF75AFB2063A168A068FCF755FBFE
:103BE0006063E168A068FCF750FBA0632169A068EE
:103BF000FCF74BFBE063E168E068FCF746FB206400
:103C00002169E068FCF741FB606421692069FCF7E9
:103C10003CFBA0641BB0BDE8F08FFEE7FEE77047F9
:103C200038B51C49002309681B4A11F0F00F23D155
:103C300018491C310C68E500184C03D5216801F4C3
:103C4000C0540EE00D6845F080550D600D6805F01C
:103C50008055009524680D6804F4C05425F0805503
:103C60000D60B4F5C05F07D1B0F5404F04D11068C6
:103C7000012340F004001060106820F00100184398
:103C80001060106800F00100984201D0012038BD9A
:103C9000002038BD08380240003C0240007000405F
:103CA0002DE9FE4F6846FEF787FD424CBDF8000047
:103CB000A080BDF80200E080BDF804002081BDF9BD
:103CC0000600FCF73FFC616DFCF7D9FAFCF759FCE4
:103CD0006081BDF90800FCF735FCA16DFCF7CFFA57
:103CE000FCF74FFCA081BDF90A00FCF72BFCE16D4D
:103CF000FCF7C5FAFCF745FCDFF8BC90DFF8BCA088
:103D0000DFF8BCB0E08100256FF00B0804EB45063E
:103D1000B6F90400FCF716FC4146FCF726FB4946C1
:103D2000FCF7B3FA04EB8507B861B6F90A00FCF7B3
:103D300009FC5146FCF7A9FA5946FCF7A6FA2149B5
:103D4000FCF7D5FA6D1CEDB27862032DDED3B4F921
:103D50001000FCF7F7FB2063B4F91200FCF7F2FB4C
:103D60006063B4F91400FCF7EDFBA063E16BA0699C
:103D7000FCF785FAFEF750FEE066216CE069FCF77F
:103D80007EFAFEF787FE2067616C206AFCF777FAFF
:103D9000FEF7BEFE6067606AFEF7F8FEA067A06AE5
:103DA000FEF732FFE067E06AFEF76CFFC4F88000C0
:103DB000BDE8FE8FE40100200AE81C4100007A3DC6
:103DC000DB0F4940000034437047FDF75DBB000046
:103DD00030B593B034216846FCF7F4F914210DA8EE
:103DE000FCF7F0F91248016821F4C05141F4006178
:103DF0000160022000900024012510200994CDE9E3
:103E000003506846FDF7FEFC08B172B6FEE70F20CE
:103E1000CDE90E540D90109400210DA81194FDF7DA
:103E2000CBFB002801D072B6FEE713B030BD000016
:103E300000700040704700002DE9F0410446006822
:103E40000169E26821F44051114301612169A068D0
:103E5000E26908436169114322680843D16849F265
:103E60000C6399430143D16020684169A26921F440
:103E700040711143416136492068884202D1FDF703
:103E80007DFC01E0FDF76AFC0246E3696420322113
:103E9000B3F5004F02EBC20303EB021362682BD0B1
:103EA0009200B3FBF2F5B5FBF0F5B3FBF2F66FF061
:103EB00018077D4306EB8505B3FBF2F601EB05150C
:103EC000B5FBF0F5B6FBF0F605F0F00505EB0615D1
:103ED000B3FBF2F6B3FBF2F2B2FBF0F27A4306EB7D
:103EE000820201EB0211B1FBF0F000F00F0021683B
:103EF00028448860BDE8F0815200B3FBF2F6B6FBBF
:103F0000F0F6B3FBF2F7B3FBF2F56FF0180C06FB1B
:103F10000CF607EB860601EBC606B5FBF0F5B6FB23
:103F2000F0F62D0106F0F80605EB4605B3FBF2F6B8
:103F3000B3FBF2F2B2FBF0F202FB0CF206EB8202F0
:103F400001EBC201B1FBF0F000F00700CFE7000089
:103F5000003801402DE9F041984617460E460446C8
:103F6000069D27E0681C25D02DB1FCF7E5FFA0EBEE
:103F70000800A8421ED920680C3050E8001F21F428
:103F8000D07140E80012002AF5D12068143050E8C2
:103F9000001F21F0010140E80012002AF5D1202085
:103FA00084F8410084F84200002084F84000032097
:103FB000BDE8F0812068006836EA000004D00020E7
:103FC000B842CFD00020F3E70120F9E7FEE7000078
:103FD0000FB4054B10B503A9044A029800F020F96C
:103FE00010BC5DF814FB0000F14C0008DC0100205F
:103FF0004100080218BF04200A0E18BF40F001005B
:104000004FF07F4232EA010108BF40F00200012870
:1040100008BF052070474FF07F41B1EB400F01D141
:10402000012070470020704720F00040C0F1FF40A1
:10403000C00F70470907090E002804DB00F1E020DB
:1040400080F80014704700F00F0000F1E02080F8C5
:10405000141D70470121FCF788B9FCF7BEB8002198
:104060000846FCF744B96FF05E010807FCF77DB91C
:1040700002E008C8121F08C1002AFAD17047704731
:10408000002001E001C1121F002AFBD1704700008F
:104090000149086070470000E00100202DE9FF5F42
:1040A00082B00021DDE90430020DDDF840B00343A9
:1040B00018D044F61050A2F2FF3242431514119862
:1040C00001281FD0A5EB0B00401C5FEA000A4FF04F
:1040D00000064E4FDFF83891B046504615D5CAF16C
:1040E000000413E0119801244AA3012801D16FEACA
:1040F0000B010298119AC0E90031C0E9024206B0F2
:10410000BDE8F09FCBF10000DFE704460021404A04
:10411000491842EB0450CDE9001012E0E00707D047
:1041200032463B4640464946FCF72BF980468946D5
:1041300032463B4610461946FCF723F906460F4621
:104140006410002CEAD1DDE90401DDE90023BAF1B5
:10415000000F06DAFCF715F942464B46FCF711F959
:1041600005E0FCF780F942464B46FCF77CF9044633
:104170000E460022284BFCF725FC03D84FF0FF30F9
:10418000014607E00022254B20463146FCF70AFB9A
:10419000FCF700FC102409E0002C0ADB0A220023B3
:1041A000FBF7C6FF039B30321A55641E50EA01022A
:1041B000F2D1641C039AC4F111031444119A012A28
:1041C00003D0012208430DD10AE0084304D00020A7
:1041D0004FF0110B119072E7A3EB0B056D1E0DE074
:1041E0005B4504DD4FF0000205F1010504E003DA50
:1041F0004FF00002A5F10105002AECD002981199B8
:10420000C0E90231C0E9004579E700000000144030
:104210000000F03F300000000000F0430000E03FED
:104220002DE9FF4F95B09A46884606460025EEE1F7
:10423000252877D100242746F94A0121039400E07C
:10424000044316F8013F203B01FA03F01042F7D176
:1042500030782A2811D06FF02F033078A0F1300287
:10426000092A16D8039A44F0020402EB820203EBF7
:1042700042021044761C0390EFE758F8042B039297
:10428000002A03DA504244F40054039044F002043C
:10429000761C30782E2816D116F8010F44F004044D
:1042A0002A280DD06FF02F023078A0F13003092BAF
:1042B00009D807EB870302EB4303C718761CF3E723
:1042C00058F8047B761C30786C280FD006DC4C281C
:1042D00017D068280DD06A2814D104E0742810D0B3
:1042E0007A280FD10DE044F400140AE044F480145D
:1042F00001E044F440147278824202D104F5801443
:10430000761C761C307866280BD013DC582877D0C2
:1043100009DC002875D04528F6D04628F4D0472877
:104320001AD193E118E0632835D0642879D0652844
:1043300012D18BE1702873D008DC6728F1D069288E
:104340006FD06E280DD06F2806D1ACE073282CD02A
:10435000752874D0782853D05246179990476D1C11
:1043600054E1C4F30250022809D003280DD0D8F834
:10437000001004280DD00D6008F1040846E1D8F8BB
:104380000010EA17C1E90052F6E7D8F800100D80D6
:10439000F2E70D70F0E718F8041B8DF8001000200C
:1043A0008DF80100EB46012003E058F804BB4FF004
:1043B000FF3061074FF0000102D40DE009F1010167
:1043C0008946B9420FDA8145F8DB1BF8091000294C
:1043D000F4D108E009F1010189468142FADB1BF8BA
:1043E00009100029F6D103985346A0EB090721468E
:1043F0003846179A00F080FA284400EB090507E0D8
:1044000044E008E10DE01BF8010B52461799904774
:10441000B9F10109F7D2534621463846179AF2E01E
:1044200039E00A21C4F302524FF0000B0091022A36
:1044300006D058F8040BC117032A09D00AE023E07C
:1044400008F1070020F00702F2E80201904605E0BB
:1044500000B2C117042A01D140B2C117002906DAFF
:104460000A460021404261EB02012D2202E02205B2
:1044700004D52B228DF80420012203E0E20701D0AD
:104480002022F7E7914657E00A2100E010214FF083
:10449000000B00910BE010214FF0000B44F00404DE
:1044A0000827009103E008204FF0000B0090C4F3B0
:1044B0000252022A05D058F8040B0021032A08D022
:1044C00008E008F1070020F00702F2E80201904638
:1044D00003E080B2042A00D1C0B24FF000092207E5
:1044E0002AD53278702A07D0DDF800C08CF0100C85
:1044F0005CEA0B0C05D00EE040228DF8042001226E
:1045000008E050EA010306D030238DF804308DF81E
:10451000052002229146009B83F0080353EA0B0317
:104520000AD150EA010201D1620705D530228DF887
:1045300004204FF001097F1E3278582A04D039A296
:104540000C920CAA02920BE03BA2F9E75B46009AA0
:10455000FBF7EEFD0C9B9B5C029A521E02921370BD
:1045600050EA0102F2D1029804A9081A00F1200BC6
:10457000600702D524F4803400E001275F4502DDA6
:10458000A7EB0B0000E0002000EB0B01009003986C
:104590004944401A0390E00306D453462146179A33
:1045A000039800F0A9F90544002706E001A8524647
:1045B000C05D179990476D1C7F1C4F45F6DBE003EB
:1045C0000CD553462146179A039800F095F90544F7
:1045D00004E030205246179990476D1C0099481E00
:1045E00000900029F5DC08E0029802995246007814
:1045F000491C0291179990476D1CBBF10001ABF16A
:10460000010BF1DC5BE100F065F90544761C3078C4
:1046100000287FF40DAE19B02846BDE8F08F0000E9
:104620000928010030313233343536373839616288
:10463000636465660000000030313233343536374C
:10464000383941424344454600000000600700D429
:10465000062708F1070020F00700F0E80223804653
:1046600003F0004C5FEA0C0001D097A009E02005A0
:1046700001D596A005E0E00701D095A001E0AFF2DA
:104680004C001390307823F0004365280CD006DCF2
:10469000452809D046281DD047287FD13BE0662811
:1046A00018D067287AD136E00021112F01DB1120C4
:1046B00000E0781CCDE9000104A90CA8FFF7EEFC8E
:1046C000DDE90D010C9A4FF0000B07F10109109282
:1046D00000914EE04FF000400097CDE9011004A991
:1046E0000CA8FFF7DBFCDDE90D020C9B0F994FF0E6
:1046F000000B91461093009211B9791C00EB01094F
:10470000B7EB090003D4C0F1FF3B07F10109A9EBA6
:104710000700019042E0012F00DA01270021112F4C
:1047200001DD112000E03846CDE9000104A90CA804
:10473000FFF7B4FCDDE90D010C9A00914FF0000B7E
:10474000B946109221070FD4009A4A4503DA9146E0
:1047500001E0A9F10109B9F1010F05DD109AA9F1F4
:104760000101515C3029F4D0B84202DA10F1040F93
:1047700003DA0121CDE9011010E0002803DC8344B5
:10478000A9EB000102E0411C494500DD8946A0EB90
:104790000B00401C01904FF000400290200705D410
:1047A0000198484502DB4FF0FF30019000208DF862
:1047B0004B0002980DF14B07B0F1004F25D00220BD
:1047C0000C902B200D90029800280CDA40420290A9
:1047D0002D200D9007E00A210298FBF71AFF3031D7
:1047E000029007F8011D0C99481E0C900029F2DC7C
:1047F00002980028EFD1791E0D980870307800F0EB
:10480000200040F0450007F8020D11A8C01BC01D94
:1048100002901398007800B1012000EB0901019883
:1048200001EBE071029801440398401A401E039086
:10483000E00306D453462146179A039800F05CF82B
:1048400005441398007818B15246179990476D1C8B
:10485000E00323D553462146179A039800F04CF8FD
:1048600005441BE0BBF1000F07DB0098584504DD51
:104870001098179910F80B0001E017993020524654
:10488000904701980BF1010B401E05F101050190C5
:1048900004D12E205246179990476D1CB9F10001A2
:1048A000A9F10109DEDC05E017F8010B5246179962
:1048B00090476D1C0299481E02900029F4DC534673
:1048C0002146179A03989EE62D0000002B00000059
:1048D000200000002DE9F041044600251E46174641
:1048E000880404D405E039462020B0476D1C641EBE
:1048F000F9D52846BDE8F0812DE9F04104460025B0
:104900001E469046C80301D5302700E020278804C2
:1049100004D505E041463846B0476D1C641EF9D504
:104920002846BDE8F08100002DE9F04104464FF033
:104930000E4000EB4400B0F1506F204655D84FF0C8
:10494000FC41B1EB440F1CD224F000404FF07E51EB
:10495000FBF798FC4FF0FF31FBF707FD054600F031
:1049600087FA14F0004F1DBF2F4F304E80F00040EB
:104970002F4F08BF2F4E4FF04041FBF786FC0446F7
:1049800005E000273E460146FBF77FFC05462A4925
:104990002846FBF77AFC2949FBF71FFC2946FBF761
:1049A00074FC2749FBF719FC2946FBF76EFC2549E7
:1049B000FBF713FC2946FBF768FC2349FBF70DFCCA
:1049C000804629462046FBF760FC4146FBF75DFC2C
:1049D000054631462046FBF700FC2946FBF7FDFB68
:1049E0003946BDE8F041FBF7F8BB4FF0E441B1EBCD
:1049F000440F08D9FFF7FCFA042808BFFFF733FB80
:104A00002046BDE8F0814FF07F41B1EB440F03D267
:104A1000BDE8F041FFF71EBB0120FFF739FBBDE801
:104A2000F041FFF71CBB00000000C9BF22AAFDB97E
:104A30000000C93F22AAFD3924FE1C3DC78AD83C8C
:104A40001E67383D1B93993DAFAA2A3E2DE9F047DA
:104A50004FF0684202EB40030C460546B3F1654F48
:104A60003CBF02EB4102B2F1654F80F0CD8000BF48
:104A7000C0F3C752C1F3C753D21A1B2A06DD10F088
:104A8000004F14BF87488848BDE8F08712F11A0F1D
:104A90002FDA11F0004F06D010F0004F0CBF834802
:104AA0008348BDE8F08721462846FBF720FC0646F0
:104AB000FFF79EFA042808BFFFF7D5FA2846FFF74C
:104AC00097FA05462046FFF793FA04463046FFF76B
:104AD0008FFA042D18BF052D08D1042C18BF052C02
:104AE00004D1002804BF0220FFF7D2FA3046BDE807
:104AF000F0874200B2EB410F25D910F0004F19BFEB
:104B00006C4F6D4E6D4F6E4E224685F0004415463B
:104B10000A4680F0004110460A1A5200B2F1807F26
:104B20003ED248406749DFF8A0A110F0004F18D0EE
:104B30004FF03F483846FBF7A2FB07465146304648
:104B4000FBF79DFB17E011F0004F04BF002637462E
:104B5000E2D010F0004F19BF5C4F5D4E5D4F5E4ECE
:104B6000DAE74FF07C583846FBF737FB07465146EB
:104B70003046FBF732FB064641462846FBF785FBED
:104B80002146FBF72AFB824621464046FBF77DFB88
:104B90002946FBF777FB5146FBF7A9FB044604E0E7
:104BA00021462846FBF7A3FB04460146FBF76DFBB5
:104BB00080464A49FBF769FB4949FBF70EFB414632
:104BC000FBF763FB4749FBF708FB4146FBF75DFB3F
:104BD0004549FBF702FB4146FBF757FB4349FBF70F
:104BE000FCFA054641462046FBF74FFB2946FBF7FA
:104BF0004CFB3146FBF7F1FA2146FBF7EEFA39465A
:104C0000BDE8F047FBF7E9BA4FF07F42B2EB400F47
:104C100028BFB2EB410F03D2BDE8F047FFF71DBA42
:104C200040EA01035B0008BF44F0FF410AD0B2EB49
:104C3000400F08BFB2EB410F06D125F0804024F0B1
:104C4000804105460C4613E7B2EB400F12BF5FEA06
:104C5000410345F0FF4004F000413FF409AFB2EBDF
:104C6000410F12BF5FEA400205F0004044F0FF41EF
:104C70003FF4FEAE4A0092EA40033FF5F9AE002A47
:104C8000ACBF4FF09F464FF03E563146FBF7FDFA62
:104C9000054631462046FBF7F8FA044628462146E9
:104CA000E6E60000DB0FC9BFDB0FC93FDB0F494061
:104CB000DB0F49C00000C9BF22AAFDB90000C93FEF
:104CC00022AAFD390060ED3EC30ACE37000049C07C
:104CD00022AA7DBA0000494022AA7D3A2DAD65BDC9
:104CE0008FB8D53D0FB511BE61C84C3EA8AAAABE6B
:104CF00013B54FF6FF73012269460248FDF712F81B
:104D000000981CBD200300207CB54FF07F54054661
:104D10004FF0FF310094FBF728FBCDE90050094923
:104D2000A1EB6500014600900198FBF7AEFA0099EF
:104D3000FBF7ABFA2146FBF7A5FA0099FBF7A5FABA
:104D400000907CBD865A375F1FB5FCF7A5FBFFF7C7
:104D50003FF8FDF7D5FFFEF721F8FDF7FFFF012231
:104D600004211D48FCF7E2F81CA0FFF731F94FF4CD
:104D70007A70FBF7C5FEFDF7E3FCDFF86C9026E0E8
:104D8000FDF73EFA19A0FFF723F91E4FD7F8C00030
:104D9000B837FBF70FFC064688467868FBF70AFC35
:104DA00004460D463868FBF705FC8DE870010246A5
:104DB0000B4615A0FFF70CF90CA0FFF709F90A2024
:104DC000FBF79EFE99F80010491C89F8001099F82D
:104DD00000006428FBD2D3E70004024073746172C0
:104DE00074210D0A00000000C801002079706C2AAF
:104DF0002A2A2A2A2A2A2A2A2A2A2A2A2A2A2A3A03
:104E00000A000000E4010020726F6C6C3A25660A0B
:104E100070697463683A25660A7961773A25660A8B
:104E2000000000002DE9F04106460F46FBF761FD4A
:104E3000041E0D4618BF0120284320F00040C0F199
:104E40007F6000F1E040C00F0ED0301C18BF012081
:104E5000384320F00040C0F17F6000F1E040C00F17
:104E600004BF0120FFF714F920462946BDE8F08170
:104E700070B50546FBF7E2FD044620F00040C0F1A6
:104E8000FF40C00F08D025F00040C0F1FF40C00F28
:104E900004BF0120FFF7FCF8204670BD0000803FF2
:104EA0000000000000000000000000000000803F43
:104EB0000000000000000000000000000000803F33
:104EC000030406080C101820300000000000000049
:104ED00000010203040607080900000000010203A4
:104EE00004000000044F000800000020E40100005E
:104EF0009A0A0008244F0008E401002084050000FD
:104F000080400008A10350803F0D10CDCCCC3D580F
:104F1000291009320401FF0123321072019468FF45
:044F20001F0000006E
:04000005080000F5FA
:00000001FF
